S31508000000800C00203101000855010008570100083E
S31508000010590100085B0100085D01000800000000A6
S315080000200000000000000000000000005F0100085A
S31508000030610100080000000063010008650100086E
S31508000040292F0008213900082B39000835390008FE
S315080000503F3900084939000853390008E5190008EE
S31508000060811A0008A51A0008C91A0008ED1A00081E
S31508000070111B000879310008993100081D2D000868
S31508000080452D00084D180008751800089D18000829
S31508000090C5180008ED180008151900083D190008CC
S315080000A0651900088D190008D5170008FD170008FE
S315080000B0251800083D3500086D350008F10B0008C5
S315080000C0D52F0008593F00083D2F0008512F00087A
S315080000D0652F0008670100084D2E0008091A000858
S315080000E03134000800000000450C0008BD0E000869
S315080000F0250A000871090008850900084137000823
S315080001006937000891370008B9370008E137000851
S3150800011009380008792F000867010008DFF80CD0B5
S3150800012000F0D6FB004800472D450008800C00204B
S315080001300D490E4808604FF08041086840F4803049
S3150800014008600B49086820F0805008600948804715
S3150800015009480047FEE7FEE7FEE7FEE7FEE7FEE79B
S31508000160FEE7FEE7FEE7FEE70C00004000FF01039E
S31508000170B0880040213500081D010008D2B201E010
S3150800018000F8012B491EFBD270470022F6E710B58E
S3150800019013460A4604461946FFF7F0FF204610BDE7
S315080001A0F0B480EA0102D40F4200B2EB410F02D24A
S315080001B00246084611464A0042D0C30DDDB2C1F3D5
S315080001C0C752AD1A202D35DAC1F3160141F40002E3
S315080001D004B15242C5F1200602FA06F12A4110443A
S315080001E0B3EBD05F23D0C4B1012DA0EBC35009DC1B
S315080001F0F0BC4FF0004202EAC352DBB200F5000041
S3150800020000F082B9400000F1807000EBC350A0F105
S31508000210807040EAD170490009E0490841EAC07196
S31508000220A0EBC35000F50000400800EBC350F0BC3B
S3150800023000F061B96142012202EB4101001BF6E7B9
S31508000240F0BC704781F00041AAE780F00040A7E7BC
S3150800025080EA010210B502F00043400022D04A00AD
S315080002601FD0010E01EB1261C0F35600C2F356020D
S3150800027040F4000042F40002A0FB022000047F398B
S31508000280140400D0401C50EA124001D44000491E14
S31508000290C2B20C0604EBD010401C4008802A02D0DB
S315080002A003E0002010BD20F00100002900DA00203C
S315080002B0184310BD30B480EA010202F0004530F060
S315080002C0004221F0004013D090B1C30DD40DC2F303
S315080002D01601C0F31600E41A41F4000140F40002C6
S315080002E07D34914201D3641C00E04900002C02DAF7
S315080002F030BC002070474FF400000023914201D320
S31508000300891A034340084FEA4101F7D151B1914296
S3150800031002D14FF0004105E002D24FF0010101E0A1
S315080003206FF0010103EBC450284430BC00F0E3B879
S315080003302DE9F04D81EA030404F0004B21F0004555
S3150800034014464FF0000A23F0004150EA050220D077
S3150800035054EA01021DD0C5F30A570246C5F3130332
S31508000360C1F31300C1F30A5640F4801543F4801311
S31508000370A7EB0608101BD64608F2FD3873EB0500F6
S3150800038002D308F1010801E092185B41B8F1000FA9
S3150800039003DA00200146BDE8F08D00204FF48011F5
S315080003A0064684460EE0171B73EB050705D3121B9A
S315080003B063EB050306434CEA010C49084FEA300093
S315080003C092185B4150EA0107EDD152EA030012D0B8
S315080003D082EA040083EA0501084305D0101BAB41F5
S315080003E006D20122002306E000224FF0004302E075
S315080003F06FF0010253101AEB06004CEB085110EB94
S315080004000A0041EB0B01BDE8F04D00F0ABB89623AE
S315080004100022114600F078B80EB540F23341029139
S315080004200021CDE900110A460B4600F0AAF803B0F0
S3150800043000BD20F00040C10DC0F3160040F40000D6
S315080004407F2901DA00207047962903DCC1F196015D
S31508000450C840704796398840704720F00040C20D62
S31508000460C0F3160040F400007F2A02DA0020014695
S3150800047070470021962A03DCC2F19602D0407047E5
S31508000480963A00F019B8C1F30A5210B5C1F3130130
S3150800049040F2FF3341F480119A4201DA002010BD80
S315080004A040F233439A42A2F2334203DC524200F04E
S315080004B012F810BD904010BD202A04DB203A00FA3D
S315080004C002F1002070479140C2F1200320FA03F39D
S315080004D0194390407047202A04DB203A21FA02F09B
S315080004E00021704721FA02F3D040C2F12002914060
S315080004F00843194670470029A8BF7047401C4900A1
S3150800050008BF20F00100704710B4B0FA80FC00FA6A
S315080005100CF050EA010404BF10BC704749B1CCF195
S31508000520200421FA04F411FA0CF118BF0121214321
S315080005300843A3EB0C01CB1D4FEA00614FEA1020DC
S3150800054042BF002010BC704700EBC350104400297E
S31508000550A4BF10BC7047401C490008BF20F001002A
S3150800056010BC704710B5141E73F1000408DA401C5D
S3150800057041F1000192185B411A4301D120F00100B4
S3150800058010BD2DE9F04D92469B4611B1B1FA81F2A4
S3150800059002E0B0FA80F220329046FFF78DFF04465B
S315080005A00F4640EA0A0041EA0B0153465A460843F9
S315080005B013D0114653EA010019D0C8F1400250463B
S315080005C0FFF789FF05460E46504659464246FFF74D
S315080005D073FF084305D0012004E020463946BDE8EC
S315080005E0F08D0020054346EAE0762C4337430A9807
S315080005F06305E40AA0EB08000022FD0A44EA475412
S315080006000A3002D500200146E9E7010510196941BB
S31508000610DDE9084500196941BDE8F04DA2E72DE975
S31508000620FE4F804681EA0300C00F0C46009021F079
S31508000630004123F00045B8EB0200A94105D2404627
S31508000640214690461C460B46024623F000401043BE
S3150800065047D0270DC7F30A00C3F30A510290401A80
S31508000660019040286BDAC3F3130040F4801B00980E
S31508000670924620B10023D2EB030A63EB0B0B0198D9
S315080006805946C0F140025046FFF716FF06460D468A
S3150800069050465946019A00F02DF910EB08006141C1
S315080006A0002487EA115284EAE7731A4340D0009A75
S315080006B062B3019A012A4FEA075215DC001B61EB67
S315080006C002014FF0004202EA0752CDE90042001C3F
S315080006D041F5801132462B46FFF753FF03B0BDE8BC
S315080006E0F08F40462146F9E7001B61EB0201001C2A
S315080006F041F5801300185B412018A2F5001747EB57
S31508000700030140EAD570B6196D4111E06D084FEA4C
S31508000710360645EAC0754FEA0752001B61EB02012F
S31508000720001C41F5801149084FEA30000019514173
S3150800073032462B4603B0BDE8F04FFFF713BF0098CB
S31508000740012240000023D0EB020263EBE07300981D
S3150800075021464FEAE074B8EB000061EB0401E9E7D3
S3150800076083F000435BE781F0004158E72DE9FE4F2F
S3150800077081EA030404F0004421F0004100944FF09C
S31508000780000B23F0004350EA01045ED052EA03044A
S315080007905BD0C3F30A54C1F30A552C44A4F2F334CC
S315080007A00194A0FB0254C1F3130141F48011C3F371
S315080007B0130343F4801301FB024400FB034E840A2F
S315080007C0970A44EA815447EA8357A4FB07680295C7
S315080007D08D0A05FB07854FEA932C04FB0C54270565
S315080007E0029D4FEA065847EA1637B5EB08056EEB41
S315080007F0070C870E920E47EA811742EA8312A7FB77
S315080008000201B6EB0B0164EB00042B0D43EA0C3333
S315080008105E1844EB1C50DA465146E7FB0201C5F365
S3150800082013044FEA0B3343EA14534FEA0432019C8C
S3150800083043EA0603A4F10C040294009CCDE900B433
S31508000840FFF79FFE03B0BDE8F08F00200146F9E7E9
S3150800085070B521F0004303430CD0C1F30A550024B8
S31508000860D5EB040564EB0403D617AD1AB34102DBD6
S315080008700020014670BD201841EB025170BD0EB52F
S31508000880C10F80EAE0700844CA07002140F23343EA
S315080008908DE80E000A460B46FFF773FE03B000BD4F
S315080008A030B5041E71F1000404DB4FF000444042E9
S315080008B064EB0101141E73F1000405DB1C464FF0BE
S315080008C00043524263EB04038B4208BF824230BDA9
S315080008D0064C074D06E0E06840F0010394E807007F
S315080008E098471034AC42F6D3FFF71CFCB04C00080E
S315080008F0D04C0008202A06DBCB17203A41FA02F032
S3150800090043EAE07306E041FA02F3D040C2F120025E
S31508000910914008431946704770B58C1810F8015B6A
S3150800092015F0070301D110F8013B2A1106D110F87A
S31508000930012B03E010F8016B01F8016B5B1EF9D17E
S315080009402B0705D40023521E0DD401F8013BFAE704
S3150800095010F8013BCB1A921C03E013F8015B01F86F
S31508000960015B521EF9D5A142D8D3002070BD000004
S3150800097010B50348006810B101490868804710BDE2
S315080009800C02002010B50348406810B101494868B8
S31508000990804710BD0C02002030B50A290ED2036923
S315080009A001EB41050724AC40A3430361036901EB4E
S315080009B0410402FA04F42343036111E0C368A1F178
S315080009C00A0404EB44050724AC40A343C360C36888
S315080009D0A1F10A0404EB440402FA04F42343C360B5
S315080009E030BDCA4302607047012906D100BF82683C
S315080009F042F00102826000BF06E000BF826822F072
S31508000A000102826000BF00BF7047024610680840B6
S31508000A1008B1012070470020FCE70146C86C80B287
S31508000A207047000010B50348006810B1014908680E
S31508000A30804710BD1402002070B505460C460026F6
S31508000A40284600F05FF86E6826F47846D4E9041064
S31508000A5040EA4100E16840EA8100A16840EAC10035
S31508000A60616840EA011046EAC0266E602068696837
S31508000A7060F39651696000BFA069696860F30A214E
S31508000A80696000BF00BF0E48006820F47F200C494B
S31508000A900860081D006820F47F00091D086000BF73
S31508000AA000BF081F006820F07F60091F0860081D46
S31508000AB0006820F07F40091D086000BF70BD000077
S31508000AC04088004008200849087000200749088027
S31508000AD007490880074908800749088007490880A8
S31508000AE00749088070470000000000200200002027
S31508000AF00400002006000020080000200A0000204C
S31508000B000C00002010B504460121222000F0A6FDA5
S31508000B100121222000F03CFE10BD000030B5072957
S31508000B2010D2436B4C1E04EB84051F24AC40A34330
S31508000B304363436B4C1E04EB840402FA04F4234318
S31508000B40436324E00D2910D2036BCC1F04EB840504
S31508000B501F24AC40A3430363036BCC1F04EB84043C
S31508000B6002FA04F42343036311E0C36AA1F10D04F6
S31508000B7004EB84051F24AC40A343C362C36AA1F1F6
S31508000B800D0404EB840402FA04F42343C36200BF91
S31508000B90054B1B68C2F11F050124AC40A343024C58
S31508000BA0236000BF30BD00000C480040012906D173
S31508000BB000BF426842F00042426000BF06E000BF44
S31508000BC0426822F00042426000BF00BF7047426898
S31508000BD022F4401242600A68436862F31453436081
S31508000BE000BF4A68436862F35553436000BF7047C5
S31508000BF070B51248006878B100BF11480068C0F3A4
S31508000C00002004460E480068C0F3402005460B48FD
S31508000C10214602682846904700BF0948006820F028
S31508000C200200801C0649086000BF00BF084600682D
S31508000C3020F00100401C086000BF70BD540200206F
S31508000C402484004010B5024800F040F910BD0000A9
S31508000C500078004070B505460E4614469048007860
S31508000C60022801DD002070BD05F08000002855D05F
S31508000C7000BFD4F8A000C0F301600028F7D0894867
S31508000C80874A127800EB0211204600F0ACFA844835
S31508000C900078401C824908708248006820F060404D
S31508000CA040F21171884207D07E48006820F0604003
S31508000CB040F2DF71884231D17B48006800F060401D
S31508000CC000F29170784908600846406820F00F00E5
S31508000CD0083048600846006820F0804008600846EA
S31508000CE0006820F0005008606E48407A032816D144
S31508000CF00620C87150216C480172032141720021F7
S31508000D0081723221C1721321017388214173002136
S31508000D10817301220146654800F09DFABDE06148ED
S31508000D20407A0228FAD15F48006820F0604040F215
S31508000D3011718842F2D103205B49C8717F215A4854
S31508000D40017210214172782181720021C1720173EA
S31508000D504173817300BF0121544800F033FA00281B
S31508000D60F9D100BF01225049504800F074FA002812
S31508000D70F8D101F0A5FC4C48006800F0604000F589
S31508000D808970494908604A480078C8714848401C33
S31508000D900178454801724648801C017842484172EC
S31508000DA04348C01C0178404881724148001D0178BB
S31508000DB03D48C1723E48401D01783B4801733C4896
S31508000DC0801D0178384841733948C01D0178364876
S31508000DD0817300BF0121354800F0F4F90028F9D1E4
S31508000DE000BF01223049314800F035FA0028F8D111
S31508000DF02F48083000782C49C8712D4809300178E9
S31508000E00294801722A480A30017827484172284839
S31508000E100B3001782448817225480C300178224825
S31508000E20C17223480D3001781F48017320480E30DF
S31508000E3001781D4841731E480F3001781A4881739E
S31508000E4000BF0121194800F0BDF90028F9D100BFFB
S31508000E5001221549154800F0FEF90028F8D100BF0F
S31508000E6000BF00BF00BF00BFBFF34F8F00BF00BF6A
S31508000E7000BF1048006800F4E0600F490843001DF1
S31508000E800C49086000BF00BF00BFBFF34F8F00BF0B
S31508000E9000BF00BF00BF00BFFDE70120E3E600007A
S31508000EA011000020CC020020BC020020007C00407B
S31508000EB0003F00200CED00E00000FA0510B50248DE
S31508000EC000F004F810BD0000007C00402DE9F04752
S31508000ED00446A4200059C0F30726A4200059C0F3ED
S31508000EE007474FF00008204601F004FF81462B48CB
S31508000EF000EBC905A420005966F30F20A421085168
S31508000F00A420005967F31740085106F0730010B97A
S31508000F1007F0150098B306F0020068B32878C0F306
S31508000F20800048B3D4F8A000C0F3C01020B3D4F8AA
S31508000F30A00000F00100F8B9D4F8A00020F0800065
S31508000F40C4F8A000287800F0010040B154F8A00FBA
S31508000F5040F01001206861F3070044F8A0092878DA
S31508000F60C0F3400040B154F8A00F40F008012068D3
S31508000F7061F3070044F8A00946EA07206880686814
S31508000F8050B146EA072242EA0840B0221259C2F393
S31508000F90421122466B689847BDE8F087D8030020BF
S31508000FA00020034908700349087003490870704710
S31508000FB01000002011000020120000202DE9F84F33
S31508000FC004460D469146204601F094FE0646002743
S31508000FD0DFF8E8814FF0FF0A022E73DA002D71D090
S31508000FE0B9F1000FFBD0BA460020754901EBC601DE
S31508000FF048802878C0F3C00028B100221146304640
S3150800100000F057FB04E001221146304600F051FB80
S3150800101006F11C01C8B2012100F020FB06F11E01F1
S31508001020C8B2012100F01AFB06F11C01C8B2012161
S3150800103000F0AEFB4946204600F012FA686808B18F
S31508001040D5F80480002718E007EB470008EB800076
S315080010504078009007EB470008EB8000836807EBB1
S31508001060470008EB8000426807EB470018F8201095
S31508001070204600F02FFA781CC7B2102FE4DBD4F80C
S31508001080A00020F08000C4F8A000A420005920F099
S31508001090704000F10040A4210851A420005920F016
S315080010A0706000F130600851287800F007000328C6
S315080010B009D1D4F8A00020F4804000F58040C4F897
S315080010C0A00019E077E0287800F00700042807D187
S315080010D0D4F8A00020F020002030C4F8A0000BE0CF
S315080010E0287800F00700052806D1D4F8A00020F0DB
S315080010F040004030C4F8A00028784109304850F82C
S31508001100360061F382002E4941F8360028788109B5
S315080011102B4850F8360061F30000294941F836009B
S3150800112054F8A01F60F3041121602878C1092448E7
S3150800113050F8360061F34100214941F8360041086C
S31508001140206861F3C30020602888010A206861F3DB
S31508001150555020602888410A206861F39E7044F83B
S31508001160A0092878C0F3001028B3A420005920F05D
S31508001170FF00FE30A4210851A420005920F47F0066
S3150800118000F5281008512878C0F300100C4901EB27
S31508001190C601487006F12A0148B2002809DB00F0AA
S315080011A01F02012191404209920002F1E022C2F891
S315080011B0001100BF00BF5046BDE8F88FE848000898
S315080011C0D8030020024621B9D2F8A000C0F30030A7
S315080011D07047D2F8A000C0F30140032801D10120CE
S315080011E0F6E70020F4E710B50246002000BFD2F863
S315080011F0A030C3F301630BB901202BE013680C6818
S3150800120063F31C040C6053689C090B6864F35D73F4
S315080012100B605368DC090B6864F39E730B605368B4
S315080012204C6863F303044C600B68C3F340734BB913
S315080012300B7903F00F032BB19368C1F80730D46814
S315080012400B235C50D2F8A03023F0805303F180536F
S31508001250C2F8A03010BD2DE9F04104460E461546E9
S3150800126000272946204600F0D1F9B0BB2A46314668
S31508001270204600F071F929460020D4F8A020C2F3D0
S3150800128040320AB101221CE041B9D4F8A02022F468
S31508001290805202F58052C4F8A02011E040B1D4F87B
S315080012A0A02022F4806202F58062C4F8A02007E03C
S315080012B0D4F8A02022F4007202F50072C4F8A02027
S315080012C0002212B16FF001070AE02946204600F015
S315080012D083F928B16FF0020702E0FFE74FF0FF3706
S315080012E03846BDE8F08100002DE9F04105468846FC
S315080012F016461C46002705F0004068B11D480068E0
S3150800130065F31C001B4908600846006820F0804009
S3150800131000F1804008600AE01648006865F31C0082
S31508001320144908600846006820F0804008601148A3
S31508001330006820F000500F4908600846406866F3C8
S31508001340030048602078C87161780A480172A1785C
S315080013504172E17881722179C17261790173A1794B
S315080013604173E179817300F007F807463846BDE80E
S31508001370F0810000BC02002010B50446012108488F
S31508001380FFF720FF48B9012221460548FFF763FF0A
S3150800139008B9012010BD0020FCE70020FAE700008C
S315080013A0007C004010B510202549C87161212448E9
S315080013B0017224480088010A2148417221480178AF
S315080013C01F48817220480088010A1D48C1721E48BC
S315080013D001781B4801731D480088010A18484173A3
S315080013E01A48017816488173012201461848FFF702
S315080013F032FF10201249C87151211148017215484F
S315080014000088010A0E484172124801780C48817218
S3150800141011480088010A0A48C1720F48017808482D
S3150800142001730E480178064841730C480178044850
S315080014308173012201460648FFF70DFF10BD000023
S31508001440BC020020C0010020C8010020C401002001
S31508001450007C0040CC010020D4010020E3010020DC
S31508001460D0F8A02022F080028032C0F8A0204B7865
S31508001470A822125863F30702A8231A508B78A822C9
S31508001480125863F30E22A8231A50CB78A8221258B2
S3150800149063F31642A8231A500B78A822125863F34E
S315080014A01F62A8231A5070472DE9F04105460C46DD
S315080014B0284601F01FFC0646002724B1044800EB25
S315080014C0C600446000E001273846BDE8F081000008
S315080014D0D8030020F0B50446059D0020102904DA3B
S315080014E0D4F8A060C6F3C0160EB9012033E035B3B0
S315080014F0B426365961F30706B4273E51B82636593D
S3150800150062F31E06B8273E5141F02007B426365925
S3150800151067F30706B4273E51B826365963F31E0605
S31508001520B8273E5101268E40B4273F5946EA174749
S31508001530B426365967F31F46B4273E510BE0B42646
S315080015403659360C01278F40BE43B4273F5966F3F8
S315080015501F47B4263751F0BD10B532B9D0F8A030C0
S3150800156023F40043C0F8A03007E0D0F8A03023F4F5
S31508001570004303F50043C0F8A0300B68046D63F31D
S315080015801C0404650B685C0F436D64F3861343659E
S315080015900B689C0F436D64F3C71343650B79446D61
S315080015A063F3030444650B68C3F340734BB90B79C3
S315080015B003F00F032BB1D1F8074084650B235C5861
S315080015C0C465012A07D1D0F8A03023F4800303F5B7
S315080015D08003C0F8A03010BD70B505460C4600263D
S315080015E0284601F087FB084901EBC000407848B956
S315080015F024B9284602F070FC064603E0284602F0A5
S315080016008BFC0646304670BDD803002030B502462E
S315080016100B460021002063B900BFD2F8A040C4F3EE
S31508001620003404B904E00C46491C0B4DAC42F4D313
S315080016300DE000BFD2F8A040C4F30144032C00D04B
S3150800164004E00C46491C044DAC42F3D300BF024CDF
S31508001650A14200D3012030BDA086010070B5034623
S315080016600C46002000211A46202A01D20B4907E021
S31508001670242A03D20949091D203A01E04FF0FF3018
S3150800168059B12CB10D680126964035430D6004E02A
S315080016900D6801269640B5430D6070BD04000040F4
S315080016A010B50446234603220821C80602F06AFC40
S315080016B010BD70B506460C46154666B92346012286
S315080016C01A21480702F05EFC2B4602221C2150070D
S315080016D002F058FC0BE0234601221B21900702F07A
S315080016E051FC2B4602221E21500702F04BFC70BD0E
S315080016F010B50446234601221421080702F042FCCD
S3150800170010BD000010B504462346082211210248E0
S3150800171002F038FC10BD00009088004010B5044661
S31508001720234602221C21024802F02CFC10BD0000B0
S315080017309088004010B50446234602221E2102481E
S3150800174002F020FC10BD00009088004070B50446E9
S315080017500D46234601221821900702F013FC2B465A
S3150800176002221146500702F00DFC70BD10B5044662
S31508001770234604221146100702F004FC10BD10B5DA
S315080017800446234602220021500702F0FBFB10BD47
S3150800179070B503460C46002000211A46202A01D2BD
S315080017A00B4907E0252A03D20949091D203A01E019
S315080017B04FF0FF3059B12CB10D68012696403543DC
S315080017C00D6004E00D6801269640B5430D6070BDB6
S315080017D01800004010B5074800F0F6F80446064819
S315080017E0806A28B1044800222146836A014898473E
S315080017F010BD000080220140E803002010B507480C
S3150800180000F0E2F804460648C06A28B104480022F7
S315080018102146C36A0148984710BD0000C02201400E
S31508001820E803002010B5074800F0CEF8044606483D
S31508001830006B28B1044800222146036B01489847EB
S3150800184010BD000000230140E803002010B507483A
S3150800185000F0BAF804460648406828B10448002251
S31508001860214643680148984710BD000040200140C2
S31508001870E803002010B5074800F0A6F80446064815
S31508001880806828B1044800222146836801489847A1
S3150800189010BD000080200140E803002010B507486D
S315080018A000F092F804460648C06828B104480022A9
S315080018B02146C3680148984710BD0000C020014072
S315080018C0E803002010B5074800F07EF804460648ED
S315080018D0006928B10448002221460369014898474F
S315080018E010BD000000210140E803002010B507489C
S315080018F000F06AF804460648406928B10448002200
S31508001900214643690148984710BD0000402101401F
S31508001910E803002010B5074800F056F804460648C4
S31508001920806928B1044800222146836901489847FE
S3150800193010BD000080210140E803002010B50748CB
S3150800194000F042F804460648C06928B10448002257
S315080019502146C3690148984710BD0000C0210140CF
S31508001960E803002010B5074800F02EF8044606489C
S31508001970006A28B1044800222146036A01489847AC
S3150800198010BD000000220140E803002010B50748FA
S3150800199000F01AF804460648406A28B104480022AE
S315080019A02146436A0148984710BD0000402201407D
S315080019B0E8030020816821F00201891C81608168A2
S315080019C021F002018160704770B50446256805F06C
S315080019D0040010B12046FFF7EDFF2068A8432060F9
S315080019E0284670BD10B5002000F0B4FF044605482F
S315080019F0006818B10348016820468847204600F069
S31508001A0093FF10BD1C0400202DE9FF5F01F01AF8B2
S31508001A1003900020029082464FF4806A29E00398DA
S31508001A2000EA0A0018B300204FF0804102F0D0FB0C
S31508001A3006460F465046FEF7EFFCCDE9000102F0D8
S31508001A40C7FB804632463B46FEF772FC0446FEF765
S31508001A501AFD834600F07EFF02900848806918B197
S31508001A600648816902988847029800F05DFF4FEAA8
S31508001A704A0ABAF5803FD2D3BDE8FF9F1C0400206E
S31508001A8010B5012000F066FF04460548406818B105
S31508001A900348416820468847204600F045FF10BDA8
S31508001AA01C04002010B5022000F054FF0446054827
S31508001AB0806818B10348816820468847204600F0A8
S31508001AC033FF10BD1C04002010B5032000F042FFB0
S31508001AD004460548C06818B10348C16820468847C7
S31508001AE0204600F021FF10BD1C04002010B504207C
S31508001AF000F030FF04460548006918B1034801693B
S31508001B0020468847204600F00FFF10BD1C04002021
S31508001B102DE9FF5F00F096FF0390002002908246B1
S31508001B204FF0200A29E0039800EA0A0018B30020BB
S31508001B304FF0804102F04CFB06460F465046FEF732
S31508001B406BFCCDE9000102F043FB804632463B467A
S31508001B50FEF7EEFB0446FEF796FC834600F0FAFE17
S31508001B6002900848406918B10648416902988847B2
S31508001B70029800F0D9FE4FEA4A0ABAF5806FD2D326
S31508001B80BDE8FF9F1C0400202DE9F04781460E465C
S31508001B90154600270024A0460FE0484600F0C4F882
S31508001BA00746B7F5806F02DB0020BDE8F087E0192D
S31508001BB084B208F1010000F0FF08A845EDDB94FBAC
S31508001BC0F5F084B206B1A4102046EEE710B51B481E
S31508001BD00078072804D1002000F0A6F818490880E4
S31508001BE016480078082804D1012000F09DF8154908
S31508001BF0088012480078092804D1022000F094F8D9
S31508001C00114908800D4800780A2804D1032000F0FD
S31508001C108BF80E490880094800780B2804D104205F
S31508001C2000F082F80A490880044800780C2804D194
S31508001C30052000F079F80749088010BD000000204B
S31508001C4002000020040000200600002008000020F2
S31508001C500A0000200C00002030B589B01C2102A81B
S31508001C60FEF793FA00200090019002AC6D46606082
S31508001C70A060E0602061606101210A2000F064FF35
S31508001C8001210B2000F060FF01210C2000F05CFF11
S31508001C9001210D2000F058FF01210E2000F054FF0D
S31508001CA001210F2000F050FF0121102000F04CFF09
S31508001CB021461C48FEF7C0FE04201A49896860F3CD
S31508001CC00F31184A916000BF29461046FEF77FFF7C
S31508001CD001211448FEF788FE002203211148FEF769
S31508001CE05BFE002204210F48FEF756FE002205215E
S31508001CF00C48FEF751FE002206210A48FEF74CFE64
S31508001D00002207210748FEF747FE0022082105485A
S31508001D10FEF742FE002209210248FEF73DFE09B001
S31508001D2030BD00000030004070B50446002500268E
S31508001D3002211148FEF755FE224601210E48FEF7FC
S31508001D40EDFE01210C48FEF731FF09E03046711C13
S31508001D508EB24EF66021884202DD4FF6FF7070BDE6
S31508001D6002210548FEF751FE0028EFD00248FEF78B
S31508001D7054FE0546A810F2E70030004010B5FFF7FC
S31508001D8025FF00F021FC02F023F800F089FB00F0A3
S31508001D9071FA02F01DF800F059FB00F027FC02F07A
S31508001DA017F810BD30B52948007800284DDD2848B9
S31508001DB0006820F06040A0F2222030B1A0F2111095
S31508001DC000B3A0F2111038BB25E02148C179007A8A
S31508001DD001EB00201F4908801D48417A807A01EBF3
S31508001DE000201D4908801B480088322802DA322064
S31508001DF01849088018480088322802DA322016491D
S31508001E0008800AE01248C079144908801048007A08
S31508001E101349088001E000E000BF00BF00200AE087
S31508001E200B4901EB00120B46411C03EB01153ACD99
S31508001E303AC2411CC8B205490978491E8142EFDCFD
S31508001E4002480078401E0149087030BD1100002084
S31508001E50CC020020B8010020B601002016000020A0
S31508001E60180000201CB5FA48007801287DD1F948E9
S31508001E70007880BBF84800788DF80000F64800889E
S31508001E8000128DF80100F44880788DF80200F248B7
S31508001E90408800128DF80300EF4800798DF8040099
S31508001EA0ED48808800128DF80500EB4880798DF89A
S31508001EB00600E948C08800128DF807006B4608221C
S31508001EC000215001FFF710FA012804D1E1480078F3
S31508001ED0401CE0490870DF480078012804DD00202E
S31508001EE0DB490870DB490870DA480078012827D1F1
S31508001EF0D948007A8DF80000D748008900128DF875
S31508001F000100D548807A8DF80200D348408900122E
S31508001F108DF8030001208DF804008DF805008DF872
S31508001F2006008DF807006B46042200214002FFF7E1
S31508001F30DBF9012804D1C7480078401CC549087058
S31508001F40C448007802282AD1C44800788DF80000D1
S31508001F50C248008800128DF8010016208DF802008C
S31508001F6017208DF80300182000E06FE18DF80400B3
S31508001F7019208DF805001A208DF806001B208DF80B
S31508001F8007006B46022200214FF44070FFF7ACF9B8
S31508001F90012804D1AF480078401CAE490870AD4806
S31508001FA00078032827D1AE4800788DF80000AC48A1
S31508001FB00088000A8DF8010020208DF802002120F3
S31508001FC08DF8030022208DF8040023208DF80500E3
S31508001FD024208DF8060025208DF807006B4602227E
S31508001FE000215002FFF780F9012804D199480078AA
S31508001FF0401C9849087097480078042825D128205D
S315080020008DF8000029208DF801002A208DF802009D
S315080020102B208DF803002C208DF804002D208DF838
S3150800202005002E208DF806002F208DF807006B4638
S31508002030082200214FF4A060FFF756F9012804D1C1
S3150800204084480078401C834908708248007805282F
S3150800205025D132208DF8000033208DF80100342078
S315080020608DF8020035208DF8030036208DF804001F
S3150800207037208DF8050038208DF8060039208DF8B0
S3150800208007006B46082200214FF4C060FFF72CF9C1
S31508002090012804D16F480078401C6E4908706D48C5
S315080020A00078062825D13C208DF800003D208DF8C3
S315080020B001003E208DF802003F208DF803004020E5
S315080020C08DF8040041208DF8050042208DF80600A1
S315080020D043208DF807006B46082200214FF4E06084
S315080020E0FFF702F9012804D15A480078401C5949DB
S315080020F0087058480078072824D146208DF8000033
S3150800210047208DF8010048208DF8020049208DF8F7
S3150800211003004A208DF804004B208DF805004C205A
S315080021208DF806004D208DF807006B460822002121
S315080021304C48FFF7D9F8012804D146480078401CD6
S315080021404449087043480078082824D150208DF85F
S31508002150000051208DF8010052208DF8020053200E
S315080021608DF8030054208DF8040055208DF80500DD
S3150800217056208DF8060057208DF807006B46082272
S3150800218000213948FFF7B0F8012804D13148007812
S31508002190401C304908702F480078092824D15A2055
S315080021A08DF800005B208DF801005C208DF8020098
S315080021B05D208DF803005E208DF804005F208DF801
S315080021C0050060208DF8060061208DF807006B4633
S315080021D0082200212548FFF787F8012804D11D4861
S315080021E00078401C1B4908701A4800780A2824D130
S315080021F064208DF8000065208DF8010066208DF8B2
S31508002200020067208DF8030068208DF80400692015
S315080022108DF805006A208DF806006B208DF80700FA
S315080022206B46082200211248FFF75EF8012804D100
S3150800223008480078401C07490870064800780A28AC
S3150800224004DD002002490870024908701CBD000020
S315080022501000002012000020700300200400002057
S315080022601400002000080080000900800079018021
S31508002270007A018010B5FFF795FDFFF7F3FD00F032
S31508002280A1F910BD0EB50020019002900090012121
S315080022902A2000F059FC01212B2000F055FC0320D0
S315080022A000F032FD00680090019820F01000103010
S315080022B00190019820F040000190019820F08000DC
S315080022C00190019820F00700401C0190019820F029
S315080022D02000203001900020029005490548FFF7AC
S315080022E0E3F86A4601A90348FEF768FE0EBD00003A
S315080022F0550C0008007C004010B50021212000F094
S3150800230023FC0021222000F01FFC0021232000F0DE
S315080023101BFC0021242000F017FC0121212000F0DD
S3150800232097FB0021212000F0CFFB002038490860E8
S315080023300121232000F08CFB0021232000F0C4FBA0
S3150800234000203349083108600121242000F080FB71
S315080023500021242000F0B8FB00202D490C3108602C
S315080023600121222000F074FB0021222000F0ACFBA2
S3150800237000202749091D086001211F2000F068FB7D
S3150800238000211F2000F0A0FB00202249086001213F
S315080023902C2000F05DFB03212C2000F095FB00208B
S315080023A01B492C31086001212D2000F051FB032127
S315080023B02D2000F089FB00201549303108600121E5
S315080023C02E2000F045FB03212E2000F07DFB002087
S315080023D00F493431086001212F2000F039FB032111
S315080023E02F2000F071FB00200949383108600021D0
S315080023F0142000F02DFB0021152000F029FB0021F8
S31508002400182000F025FB00211C2000F021FB10BD40
S31508002410040D00233C07002310B54FF4FA7000F0B2
S3150800242065FEFFF769FFFFF717FC00F0B1F900F04A
S3150800243055F8FFF727FF00F01DF800F0EBF801F05C
S3150800244095FC01F049FA01F04BFA10BD07480078EF
S31508002450012802D10020054908700548007801289E
S3150800246002D100200249087070470000820100204E
S315080024708301002010B50121252000F0E9FA012189
S31508002480262000F0E5FA00BF01200449086000BFD5
S3150800249000BF091D086000BF10BD0000140D002311
S315080024A00B4840680B490860094800690A490860F2
S315080024B00748806948600648006A88600448806A58
S315080024C0C8600348006B08610148806B4861704723
S315080024D000500140A80100201C03002010B5304917
S315080024E0304801F011FA30492E48103001F00CFA44
S315080024F02E492C48203001F007FA2D49294830305A
S3150800250001F002FA2B492748403001F0FDF92A4923
S315080025102448503001F0F8F928492248603001F083
S31508002520F3F927491F48703001F0EEF91D2001F034
S31508002530B1FD1E2001F0AEFD2F2001F0ABFD3020CD
S3150800254001F0A8FD312001F0A5FD322001F0A2FD21
S31508002550332001F09FFD342001F09CFD00211D2051
S3150800256001F0A6FD00211E2001F0A2FD00212F206A
S3150800257001F09EFD0021302001F09AFD0021312056
S3150800258001F096FD0021322001F092FD0021332052
S3150800259001F08EFD0021342001F08AFD10BD0000F7
S315080025A055350008001101408535000859370008DF
S315080025B081370008A9370008D1370008F93700081D
S315080025C0213800087047000008B506480078012839
S315080025D007D16A460821044800F06AF90020014933
S315080025E0087008BD920100209801002000B5064831
S315080025F00078012807D105490548008802F026F920
S3150800260000200149087000BD8C01002090010020BF
S315080026108E0100201CB5002000900190012100F0D9
S3150800262093FA0121084600F08FFA0121022000F0F2
S315080026308BFA0121032000F087FA009820F48050D5
S3150800264000F580500090009820F080400090009897
S3150800265020F0805000F180500090009820F48020EF
S3150800266000F580200090009820F4002000F5002056
S315080026700090009820F0807000F18070009000981B
S3150800268020F0806000F180600090009820F47000CF
S3150800269000F570000090009820F400300090009833
S315080026A020F48030009005208DF804008DF8050090
S315080026B06946024800F080FD1CBD000000C00040CD
S315080026C05A20184908705B20491C08700020491CCC
S315080026D008701820491C08704420491C08701120ED
S315080026E0491C08702420491C08700020491C0870E1
S315080026F05A20491C08705B20491C08700020491C98
S3150800270008701820491C08704420491C08701120BC
S31508002710491C08702420491C08700020491C0870B0
S3150800272070470000003F00201CB501208DF800000E
S315080027308DF8010000208DF8020041F2BF200190BB
S315080027406946044801F07EF80349024801F0DCF8BE
S315080027501CBD000000110140553500081CB50120BC
S315080027608DF800008DF8010000208DF8020041F276
S31508002770BF2001906946044801F064F803490248FD
S3150800278001F0C2F81CBD0000101101408535000893
S315080027903EB50121082000F0D7F90121072000F0F5
S315080027A0D3F94FF49640009008208DF804000120D4
S315080027B08DF8050000208DF8060001208DF8070029
S315080027C000208DF808006946324801F013F93249AD
S315080027D0304801F079FA012038B12E49C96921F04B
S315080027E00101491C2B4AD16105E02A49C96921F032
S315080027F00101284AD16100BF0220002807DB00F04A
S315080028001F0201219140254A430942F8231000BFBF
S315080028100220002809DB00F01F020121914042092D
S31508002820920002F1E022C2F8001100BF0220012145
S31508002830002804DB0A07130E194A135406E00A0790
S31508002840140E184A00F00F031B1FD45400BF0221B0
S315080028501E2000F079F902211D2000F075F94FF4C9
S315080028609640009008208DF8040001208DF8050098
S3150800287000208DF8060001208DF8070000208DF84D
S3150800288008006946084801F0B5F80849064801F005
S315080028901BFA3EBD009001406539000880E200E061
S315080028A000E400E018ED00E000D001405D390008C2
S315080028B030B504460B46002111480078F8B91AE0ED
S315080028C0605C104D6854481C81B20D480078401C65
S315080028D0C0B20B4D287099420DD10B4D2B700B4889
S315080028E0C069C0F3400030B90848C06920F002004A
S315080028F0801C064DE861994201DA3C29E0DB30BDCF
S31508002900080200209C0300200A02002000900140D3
S3150800291010B500F01FFCFEF7D5F800F043FAFEF7F5
S315080029203FFB00F025FA10BD0146002201F00F0218
S3150800293001209040014B1860002070476001082074
S31508002940034A02EBC1030CCBC0E900237047000021
S31508002950A849000810B501460A4600230024102A93
S3150800296065D2DFE802F0080D12171C22282E343A29
S3150800297040464C52585E3248006800F00F0359E052
S315080029802F480068C0F3031354E02D480068C0F3CD
S3150800299003234FE02A480068C0F303334AE0284877
S315080029A0001D006800F00F0344E02548001D00687C
S315080029B0C0F303133EE02248001D0068C0F303235A
S315080029C038E01F48001D0068C0F3033332E01C4896
S315080029D00830006800F00F032CE01948083000683A
S315080029E0C0F3031326E0164808300068C0F3032333
S315080029F020E0134808300068C0F303331AE0104893
S31508002A000C30006800F00F0314E00D480C30006825
S31508002A10C0F303130EE00A480C300068C0F3032322
S31508002A2008E007480C300068C0F3033302E04FF6AD
S31508002A30FF7010BD00BF02EB03142046F9E7000043
S31508002A4070010820014800687047000060010820EE
S31508002A502DE9F04104460D4600260027260904F014
S31508002A600F07052E26D2DFE806F0030910171E0009
S31508002A702A463946134800F0DDF81FE02A4639464B
S31508002A801048303000F0D6F818E02A4639460D4886
S31508002A90603000F0CFF811E02A46394609489030F0
S31508002AA000F0C8F80AE02A4639460648C03000F061
S31508002AB0C1F803E04FF0FF30BDE8F08100BF002009
S31508002AC0FAE70000000008202DE9F04104460D460B
S31508002AD000260027032D02D9701EBDE8F0812609BD
S31508002AE004F00F07052E26D2DFE806F003091017B3
S31508002AF01E002A463946134800F03CF81EE02A46CE
S31508002B0039461048303000F035F817E02A4639467D
S31508002B100C48603000F02EF810E02A46394609487D
S31508002B20903000F027F809E02A4639460548C030B3
S31508002B3000F020F802E04FF0FF30CEE700BF00209B
S31508002B40CBE70000000008207FB504460D460020AC
S31508002B500290039021466846FFF7F2FEDDE9000180
S31508002B60CDE902012A46DDE9020100F09DF90020BF
S31508002B7004B070BD102959D2DFE801F0080D12170C
S31508002B801C21262B30353A3F44494E53036A62F3DB
S31508002B90010303624BE0036A62F38303036246E0C0
S31508002BA0036A62F30513036241E0036A62F387135B
S31508002BB003623CE0036A62F30923036237E0036AAF
S31508002BC062F38B23036232E0036A62F30D33036216
S31508002BD02DE0036A62F38F33036228E0036A62F327
S31508002BE01143036223E0036A62F3934303621EE020
S31508002BF0036A62F31553036219E0036A62F3975393
S31508002C00036214E0036A62F3196303620FE0036A5E
S31508002C1062F39B6303620AE0036A62F31D7303624D
S31508002C2005E0036A62F39F73036200E0704700BF22
S31508002C3000BFFBE7102959D2DFE801F0080D12178B
S31508002C401C21262B30353A3F44494E53036862F31C
S31508002C50000303604BE0036862F34103036046E048
S31508002C60036862F38203036041E0036862F3C30307
S31508002C7003603CE0036862F30413036037E003680B
S31508002C8062F34513036032E0036862F38613036058
S31508002C902DE0036862F3C713036028E0036862F354
S31508002CA00823036023E0036862F3492303601EE0F8
S31508002CB0036862F38A23036019E0036862F3CB238F
S31508002CC0036014E0036862F30C3303600FE00368E3
S31508002CD062F34D3303600AE0036862F38E330360E0
S31508002CE005E0036862F3CF33036000E0704700BF76
S31508002CF000BFFBE701460348814201D10120704726
S31508002D000020FCE7007C0040014600200A2902DA80
S31508002D10014A02EB81007047C048000810B58021BF
S31508002D20064800F023F80648006828B1044800223F
S31508002D30114603680148984710BD000000E00040AE
S31508002D401802002010B58021064800F00FF8064842
S31508002D50406828B10448002211464368014898474C
S31508002D6010BD000000F00040180200200162704704
S31508002D700020024908700249087070478201002045
S31508002D8083010020602005490860084600684FF462
S31508002D907A71484302490860704700009002002093
S31508002DA09402002000201949086000BF19E000219C
S31508002DB0174A42F82010174A1154174A22F81010D9
S31508002DC0164A22F81010164A22F81010154A22F848
S31508002DD01010154A22F81010144A22F81010411C37
S31508002DE0C8B20628E3DB01201149087011490870AA
S31508002DF04FF4FA7010490880104908801049088075
S31508002E00002010490870104908707047A801002072
S31508002E101C030020AC0100203403002040030020DE
S31508002E204C03002058030020640300207003002090
S31508002E30B2010020B3010020B4010020B601002031
S31508002E40B8010020BA010020BB01002070B5144863
S31508002E500469456955B145611248006828B10022E0
S31508002E60294620460F4B1B68984770BD04F00F0093
S31508002E7098B10B48046104F0080028B10848C068F6
S31508002E8020F020000649C8600648006828B10022DC
S31508002E9029462046034B1B68984700BFE5E7000014
S31508002EA000700040480200200A2938D2DFE801F005
S31508002EB0050A0F14191E23282D32036862F302032C
S31508002EC003602DE0036862F3C503036028E0036826
S31508002ED062F38813036023E0036862F34B230360FD
S31508002EE01EE0036862F30E33036019E0036862F3B9
S31508002EF0D133036014E0036862F3944303600FE080
S31508002F00036862F3575303600AE0036862F31A63BF
S31508002F10036005E0036862F3DD63036000E0704761
S31508002F2000BF00BFFBE7000010B50348006810B1FA
S31508002F3001490868804710BD4C02002010B50348B7
S31508002F40006810B101490868804710BD38040020A0
S31508002F5010B50348406810B101494868804710BD5C
S31508002F603804002010B50348806810B10149886804
S31508002F70804710BD3804002010B50348C06810B15A
S31508002F800149C868804710BD380400200448006815
S31508002F9020F4003000F50030014908607047000051
S31508002FA0008400400348006820F080008030014912
S31508002FB008607047008400400548006820F040001B
S31508002FC003490860002002490C3108607047000078
S31508002FD00084004010B5FFF7E5FFFFF7D7FF044868
S31508002FE0006820B10248002102680846904710BDD3
S31508002FF05002002010B5044601211420FEF72EFBCE
S3150800300001211420FEF7C4FB217801F0010036499E
S31508003010096860F30411344A116000BF6068111D25
S31508003020086000BF2078C0F34000B8B1202000280F
S3150800303009DB00F01F02012191404209920002F1CA
S31508003040E022C2F8001100BF00BF2748006820F040
S31508003050400040302449086000BF0BE0202000F003
S31508003060A1FF00BF2048006820F040001E49086004
S3150800307000BF00BF2078C0F3401050B100BF1A4807
S31508003080006820F4803000F580301749086000BFDA
S3150800309008E000BF1448006820F480301249086030
S315080030A000BF00BF00BF10480068C0F3C01008B1D9
S315080030B0FFF778FF00BF0C480068C0F3404008B12E
S315080030C0FFF764FF2178C1F3C1000749096860F377
S315080030D08F31054A116000BFA06803490C310860AA
S315080030E000BF002010BD000000840040FEB5064663
S315080030F040F2E7342F25002000900190029020200E
S315080031000121002804DB0A07130E104A135406E0AF
S315080031100A07170E0E4A00F00F031B1FD75400BFED
S31508003120009820F0180000900194009820F0020002
S31508003130801C00900295009820F00100401C009029
S315080031406846FFF757FFFFF737FFFEBD00E400E0CC
S3150800315018ED00E000200449087004490880044975
S3150800316008700449087070479201002094010020F5
S31508003170960100209701002010B50548006828B17F
S3150800318003480022114603680248984710BD00000C
S315080031908002002000C0004010B50548406828B1EC
S315080031A003480022114643680248984710BD0000AC
S315080031B08002002000D0004070B504460D464FF44A
S315080031C04040201AC0F30736734901EBC601487917
S315080031D00121FEF743FA704901EBC60188790121FE
S315080031E0FEF7D6FA2888C0F3003040B100BF606801
S315080031F020F4805000F58050606000BF06E000BFF4
S31508003200606820F48050606000BF00BF2868C0F383
S31508003210807090B1604901EBC60191F9040000285D
S3150800322009DB00F01F02012191404209920002F1D8
S31508003230E022C2F8001100BF06E0574901EBC601BB
S3150800324091F9040000F0CCFE68792979226860F3C8
S315080032500F222260226861F30702226000BFA87964
S3150800326030B1A879216860F31741216000BF00BF1B
S31508003270E87930B1E879216860F31F61216000BF01
S3150800328000BF287830B12878616860F3070161606B
S3150800329000BF00BF2868C0F3035040B12968C1F3D6
S315080032A00350616860F31751616000BF00BF28884A
S315080032B0C0F3C03040B100BF606820F4004000F59C
S315080032C00040606000BF00BF2888C0F3803040B16E
S315080032D000BF606820F4804000F58040606000BF51
S315080032E000BF2968C1F34040616860F351416160DD
S315080032F000BF2968C1F30040616860F3104161604E
S3150800330000BF2968C1F38040616860F3924161603B
S3150800331000BF2968C1F3C040616860F3D3416160AA
S3150800332000BF2868C0F3006040B12968C1F3006097
S31508003330616860F35961616000BF00BF2968C1F325
S315080033408060616860F31C71616000BF2968C1F321
S315080033504060616860F39A61616000BF2968C1F3E3
S31508003360C060616860F39E71616000BF2868C0F341
S31508003370007038B100BFA06820F00100401CA060B2
S3150800338000BF06E000BFA06820F00100A06000BFF3
S3150800339000BF002070BD0000D84B00080146002081
S315080033A069B10E4A526842F000620C4B5A6000BF7F
S315080033B00A4A526802F080400028F9D00CE0074A11
S315080033C0526822F00062054B5A6000BF034A5268F1
S315080033D002F080400028F9D17047000000800040C4
S315080033E00146002069B10E4A526842F000520C4B61
S315080033F05A6000BF0A4A526802F000400028F9D015
S315080034000CE0074A526822F00052054B5A6000BF8A
S31508003410034A526802F000400028F9D170470000BC
S31508003420008000400149C8697047000000800040DC
S3150800343010B5FFF7F7FF04460B48C461282000289B
S3150800344007DB00F01F0201219140084A430942F8B0
S31508003450231000BF0648006828B10348C168204603
S31508003460034A1268904710BD0080004080E200E0E1
S315080034708C02002010B5002100224FF4FA7000BF1C
S31508003480154B164C2360164B2360401E23465B687B
S3150800349003F000430BB10028F2DC62214FF4FA7006
S315080034A041F498320D4B5A6100BF401E0B4B5B69C5
S315080034B003F400330BB10028F7DC4FF40033074C54
S315080034C0236423465B6943F48073636123465B6820
S315080034D043F00043636010BD1178AC000020004043
S315080034E06745230110B50120FFF77AFF0120FEF793
S315080034F0FFF80020FEF71EF90220FEF70FF96020FC
S31508003500FEF700F90120FFF749FF0020FEF72EF924
S315080035100120FEF734F910BD10B5FFF7E3FF10BD23
S3150800352010B5FFF7A7FFFFF7F7FF0420FEF7B8F877
S3150800353001210846FEF70AF910BD000010B5044837
S31508003540006818B1024801680020884710BD0000CD
S315080035504804002010B50446034800F06EF910B17F
S31508003560014800F065F910BD0011014010B5044886
S31508003570406818B1024841680120884710BD00001C
S315080035804804002010B504465A4800F056F90028A9
S315080035907ED0584800F04CF9022200210320FEF79D
S315080035A0F3FA55490860022200210520FEF7ECFAD5
S315080035B05249086052480078002869D15148007875
S315080035C0012804D150480068401C4F4908604E48FD
S315080035D0006801280AD100204C4908600120091D0D
S315080035E00860091D08600020091D08604648006833
S315080035F012281CD1022200210720FEF7C5FA4449E9
S315080036000860022200210820FEF7BEFA4149086038
S31508003610022200210920FEF7B7FA3F4908603F4811
S31508003620006808B9012000E000203C4908603648D7
S315080036300068132807D13A480078401C38490870B2
S3150800364001203849087037480078012804D1FDF769
S31508003650A9FE0020334908702B48006832490978CA
S3150800366088420AD10120294908600020091D0860FE
S31508003670091D08600120091D0860234800682B49B8
S31508003680097888420AD1002020490860091D00E00F
S315080036902FE00860091D0860091D08601A480068BF
S315080036A02349097888420BD1002017490860154834
S315080036B00078012804D11F480068401C1D4908608D
S315080036C01D4800781D49097801EB00201949096849
S315080036D088420ED100200B4908700120084908705D
S315080036E00020094908600E4908700E4908701149FA
S315080036F0086010BD10110140D4010020CC01002043
S31508003700E0010020E1010020F0010020040D002363
S31508003710C8010020C0010020C40100203C07002386
S31508003720E3010020E2010020E7010020E801002073
S31508003730E9010020F8010020E6010020E50100204B
S3150800374010B50448806818B1024881680220884785
S3150800375010BD00004804002010B50446014800F0DA
S3150800376067F810BD2011014010B50448C06818B1AB
S315080037700248C1680320884710BD0000480400209D
S3150800378010B50446014800F053F810BD3011014049
S3150800379010B50448006918B1024801690420884731
S315080037A010BD00004804002010B50446014800F08A
S315080037B03FF810BD4011014010B50448406918B1E2
S315080037C0024841690520884710BD000048040020CA
S315080037D010B50446014800F02BF810BD5011014001
S315080037E010B50448806918B10248816906208847DF
S315080037F010BD00004804002010B50446014800F03A
S3150800380017F810BD6011014010B50448C06918B119
S315080038100248C1690720884710BD000048040020F7
S3150800382010B50446014800F003F810BD70110140B8
S31508003830C16841F00101C16070470146CA6802F0DB
S31508003840010070472DE9F04104460D461D27002664
S3150800385008E01E4850F82600A04201D11C488757A8
S31508003860701CC6B2082EF4DB1A48006800F0020085
S3150800387008B100F039F868682060687898B1384669
S31508003880002809DB00F01F0201219140420992003D
S3150800389002F1E022C2F8001100BFA068697840EA88
S315080038A04100A06002E0384600F0B8FBA87820B1D5
S315080038B0A068A97840EA8100A060287818B1A068B5
S315080038C029780843A0600020BDE8F081E84B00088D
S315080038D0084C00080010014010B5FEF725FF10BD82
S315080038E010B5FEF73BFF10BD10B501211320FDF7FB
S315080038F0B5FE01211320FDF74BFF002001490860A2
S3150800390010BD000000100140034A821A1209034B39
S3150800391043F82210704700000011014048040020B7
S3150800392010B5012000F008F910BD10B5022000F00E
S3150800393003F910BD10B5032000F0FEF810BD10B550
S31508003940042000F0F9F810BD10B5052000F0F4F8D1
S3150800395010BD10B5062000F0EFF810BD0346002094
S315080039607047000010B503461D48C0691C48C06969
S31508003970C0F3400038B301F0200020B3194800789E
S31508003980002821DD17480078401E164C207016487E
S31508003990164C2478005D124C206014480078401CB0
S315080039A0124C207020460078114C2478A04214DB73
S315080039B000200E4C20700B4C20700948C06920F07E
S315080039C00200074CE06108E00020084C207004481B
S315080039D0C06920F00200024CE061002010BD000022
S315080039E000900140080200209C03002009020020E4
S315080039F00A02002070B504460D46002C77D0002D2B
S31508003A00FCD04B49601A8C422CD009DC494820442A
S31508003A1068B1B0F5805F13D0B0F5005F3DD118E00E
S31508003A20B0F5805F27D0B0F5005F36D12CE00121D4
S31508003A300020FDF713FE01210020FDF7A9FE2DE069
S31508003A4001210846FDF70AFE01210846FDF7A0FEFA
S31508003A5024E001210220FDF701FE01210220FDF7E5
S31508003A6097FE1BE001210320FDF7F8FD0121032045
S31508003A70FDF78EFE12E001210420FDF7EFFD01217E
S31508003A800420FDF785FE09E001210520FDF7E6FD86
S31508003A9001210520FDF77CFE00E000BF00BF297963
S31508003AA0204600F0D5F8A979204600F029F96A7A67
S31508003AB02046296800F066F86879022805D1E16889
S31508003AC021F00401091DE16003E0E16821F0040129
S31508003AD0E16000BF287A08B10120E871E879012879
S31508003AE006D1616921F00101491C616104E01CE00D
S31508003AF0616921F00101616100BF287A216C60F3D8
S31508003B00000121644208216C62F34101216400BF6F
S31508003B100120216960F34101216100BF00BF2169CD
S31508003B2060F30001216100BF00BF002070BD0000E6
S31508003B3000B001400080FEBF2DE9F0410446601E3A
S31508003B40062819DA0D4951F820502E6A6F6A2E6236
S31508003B506F62E86900F0010008B926F00106601EE8
S31508003B60074951F8200030B1601E51F820303A4616
S31508003B7031462046984700BFBDE8F081104C000842
S31508003B80680400202DE9FE4F0446884615464FF086
S31508003B90000910200290012D04D0022D05D1042021
S31508003BA0029005E00820029002E01020029000BF73
S31508003BB000BF00BFA06A65F30100A06200BF4046CF
S31508003BC0FCF725FC07460298FCF721FC824651467D
S31508003BD01E48FCF76FFB06463946FCF76BFB814629
S31508003BE04E463046FCF739FC07463846FCF70FFCCC
S31508003BF031460090FCF729FB83464FF08441FCF7D9
S31508003C0027FB0190FCF715FC8246F8B26060C7F303
S31508003C100720A060C4F844A000BF102000F01001DF
S31508003C2049B1616B21F0100110316163616B60F37A
S31508003C300301616307E0616B21F010016163616B49
S31508003C4021F00F01616300BFBDE8FE8F001B374CF2
S31508003C504A1F052A35D2DFE802F0030C16202A008F
S31508003C60C26822F00302C260026922F020020261E1
S31508003C7028E0C26822F00302521CC260026922F0E0
S31508003C80200202611EE0C26822F00302921CC26092
S31508003C90026922F02002026114E0C26822F00302DF
S31508003CA0D21CC260026922F0200202610AE0C268E0
S31508003CB022F00302C260026922F020022032026169
S31508003CC000E000BF00BF704710B502460B46012052
S31508003CD0002100BF0BE0084C54F82140944204D15F
S31508003CE0064C44F82130002003E04C1CE1B20629BA
S31508003CF0F1DB00BF10BD0000104C0008680400206E
S31508003D0011B3012902D002291DD10DE0C26822F0A3
S31508003D1008020832C260C26822F02002C260C26885
S31508003D2022F01002C2601CE0C26822F008020832C3
S31508003D30C260C26822F02002C260C26822F0100285
S31508003D401032C2600DE000BFC26822F00802C260ED
S31508003D50C26822F02002C260C26822F01002C26065
S31508003D6000BF00BF70470246002070473EB5164C9C
S31508003D700020009001900290009820F060000090CA
S31508003D80009820F0100010300090009820F00800ED
S31508003D9008300090009820F080000090009820F0ED
S31508003DA00400001D0090009820F400700090019413
S31508003DB000200290054800F079F8684600F016F8E9
S31508003DC000F006F83EBD0000009F2400673D00088D
S31508003DD072B60348034988600348886062B670472C
S31508003DE0A602A60200B00040B480B48070B50446AE
S31508003DF00025002601211920FDF730FC0121192094
S31508003E00FDF7C6FC2078C0F3411006432078C0F3BE
S31508003E10C00080B12120002809DB00F01F02012123
S31508003E2091404209920002F1E022C2F8001100BF57
S31508003E3045F0400504E0212000F00EF925F0400584
S31508003E402088C0F3402010B146F0800601E026F035
S31508003E5080062078C0F3C01010B146F0100601E0C5
S31508003E6026F010062078C0F3800010B145F0200532
S31508003E7001E025F020052078C0F3001010B145F0C8
S31508003E80800501E025F0800572B600F019F80648AD
S31508003E90466005496068C860A0680861084605600C
S31508003EA062B6002070BD000000B000400146002246
S31508003EB0024840F8221000207047000088020020BF
S31508003EC0024803498860034888607047C520C520B2
S31508003ED000B00040D928D92810B501460022002094
S31508003EE000BFA4235B58C3F3C02343B1A4235B5884
S31508003EF023F4006303F50063A424635004E0134627
S31508003F00521C044CA342ECD300BF024B9A4200D386
S31508003F10012010BDA086010010B501460022002030
S31508003F2000BFA4235B58C3F3802343B1A4235B5883
S31508003F3023F4806303F58063A424635004E01346E6
S31508003F40521C044CA342ECD300BF024B9A4200D346
S31508003F50012010BDA086010010B500BF07484068C3
S31508003F6040F040000549486000BF0548006820B198
S31508003F700348002102680846904710BD00B000407B
S31508003F808802002070B5144602680126A640761EEF
S31508003F9006FA01F5AA4303FA01F62E4032430260F7
S31508003FA070BD0000002817DB00F01F0201219140B8
S31508003FB00A4A430942F8231000BF00BF00BFBFF3F7
S31508003FC04F8F00BF00BF00BF00BF00BF00BFBFF3D9
S31508003FD06F8F00BF00BF00BF7047000080E100E0A0
S31508003FE0002817DB00F01F02012191400A4A430905
S31508003FF042F8231000BF00BF00BFBFF34F8F00BFBA
S3150800400000BF00BF00BF00BF00BFBFF36F8F00BF78
S3150800401000BF00BF7047000080E100E0002817DB02
S3150800402000F01F02012191400A4A430942F8231071
S3150800403000BF00BF00BFBFF34F8F00BF00BF00BF68
S3150800404000BF00BF00BFBFF36F8F00BF00BF00BF38
S315080040507047000080E100E0002817DB00F01F022F
S31508004060012191400A4A430942F8231000BF00BFC4
S3150800407000BFBFF34F8F00BF00BF00BF00BF00BF28
S3150800408000BFBFF36F8F00BF00BF00BF70470000BF
S3150800409080E100E0002809DB00F01F0201219140C1
S315080040A04209920002F1E022C2F8001170470000AE
S315080040B010B5002804DB0A07130E054A135406E058
S315080040C00A07140E034A00F00F031B1FD45410BD31
S315080040D000E400E018ED00E02DE9F0414F1E00EB8A
S315080040E0C7010446D1E9000115461E4637F0060207
S315080040F00DD02A463346FCF739FB7F1E04EBC7036F
S31508004100D3E90023FCF78BFA37F00602F1D1022F28
S3150800411025D0042F13D0062F18BFBDE8F0812A46F4
S315080041203346FCF723FBD4E90A23FCF778FA2A4638
S315080041303346FCF71BFBD4E90823FCF770FA2A463A
S315080041403346FCF713FBD4E90623FCF768FA2A463C
S315080041503346FCF70BFBD4E90423FCF760FA2A463E
S315080041603346FCF703FBD4E90223FCF758FA2A4640
S315080041703346FCF7FBFAD4E90023BDE8F041FCF727
S315080041804EBA00000022134610460149FCF7D0B883
S315080041900000F03F0122FCF75BBB002213461046E5
S315080041A01146FCF7C5B802E008C8121F08C1002A64
S315080041B0FAD170477047002001E001C1121F002A9A
S315080041C0FBD170470149086070470000980200203B
S315080041D02DE9F04DC84A002490B0914205DA21F045
S315080041E00043934201D805D120B110B0BDE8F04D87
S315080041F0FFF7D0BFB1F5801F1BDA53EA000209D0DA
S31508004200002911DA0120FFF7DDFF10B0BDE8F04DF7
S31508004210FFF7C3BF0220FFF7D5FFFFF7B3FF10B0C4
S3150800422081F00041BDE8F08D6FF035043622FCF7C9
S315080042300FFB04EB2152C1F31308B049A2F2FF3376
S31508004240414401F4801282F07F6103EB225281F02F
S315080042504051009241EA08010022A94BFCF780FA76
S31508004260044608F10200A74EC0F313000D467E442B
S31508004270032867D2D6E900232046FCF711FB1ED196
S315080042800098002802BFD6E9000110B0BDE8F08DFD
S31508004290FCF7F5FA07460C469B4A9C4BFCF766FA70
S315080042A006460D469A4A9B4B38462146FCF75EFA67
S315080042B010B032462B46BDE8F04DFCF7B0B94FF0CA
S315080042C05532954B20462946FCF750FA0022934B67
S315080042D0FCF749FA06460F4622462B46104619466B
S315080042E0FCF744FA32463B46FCF740FA0646009885
S315080042F00F46F0B1FCF7C3FA80468A46824A834BDA
S31508004300FCF734FA32463B46FCF72DFA22462B4692
S31508004310FCF726FA05460C467D4A7E4B4046514632
S31508004320FCF724FA10B02A462346BDE8F04DFCF700
S3150800433017BA0B4610B0324620462946BDE8F04D5E
S31508004340FCF70EBA00224FF080432046FCF767F9C7
S3150800435002460B4620462946FBF7EAFF06460F4665
S315080043600098FCF78CFACDE9040132463B46104624
S315080043703946FCF7FBF90C9069480C9A40440190C1
S3150800438009910B461046FCF7F1F982460246654844
S315080043908B46C8F151080B4608F5D72803217844FF
S315080043A0FFF79AFE52465B46FCF7E0F90A905E482C
S315080043B00D9152465B4604217844FFF78DFE099B12
S315080043C00C9AFCF7D3F9844601980D9B40EA080835
S315080043D060460A9AFCF723F983460891B8F1000F5C
S315080043E04EDD4FF0FF3220462946FCF731FA2246C9
S315080043F02B46FCF7BBF9804600988A4660B3DDE990
S315080044000401414A414BFCF7B1F9099100905A461B
S3150800441040465146089BFCF702F932463B46FCF7F4
S31508004420A5F9099B009AFCF7FAF842465346FCF7A9
S315080044309AF922462B46FCF793F904460D46DDE920
S315080044400401334A334BFCF791F910B022462B4648
S31508004450BDE8F04DFCF784B95A464046089BFCF780
S31508004460DEF832463B46FCF781F942465346FCF7EE
S315080044707AF910B022462B46BDE8F04DFCF773B921
S31508004480009840B3DDE904011F4A204BFCF76EF99A
S3150800449080468A465A4620462946089BFCF760F914
S315080044A032463B46FCF762F942465346FCF758F952
S315080044B022462B46FCF754F904460D46DDE904016D
S315080044C0134A144BFCF752F910B022462B46BDE8A6
S315080044D0F04DFCF745B90B465A4620462946FCF7E7
S315080044E03FF932463B46FCF741F910B022462B46C7
S315080044F0BDE8F04DFCF737B90000F07F645F0900AE
S315080045000000F03F360A0000763C7935EF39EA3D7F
S315080045100000E0FE422EE63F5555D53F0000E03F3D
S3150800452086EBF9FFCE080000CC0800002DE9F84F0D
S315080045300024002500260027A346A0460020009058
S3150800454081468246B4490870B4490870FEF71AFCD9
S31508004550FDF762FFFEF7DCF900BFFDF70FFCB04878
S31508004560006820F060404028F7D1AD48C07940285F
S31508004570F3D1AC48006800F060401030A9490860E3
S315080045800846406820F00F00083048600846006872
S3150800459020F0804008600846006820F00050086057
S315080045A09F48007A402872D008DC11280DD01228BE
S315080045B020D022286CD033281BD1D5E0552868D0C6
S315080045C088285DD09928F7D17EE094B90124102077
S315080045D09449C8714421934801720021417281723D
S315080045E0C172017341738173012201468E48FCF73B
S315080045F032FE0FE18A48407A8C4908708848807AEA
S315080046008B4908708648C07A8A4908708448007BB6
S31508004610894908708248407B884908708048807BB1
S3150800462087490870B8F1000F29D14FF0010810200A
S315080046307C49C87160217B4801727C4801787948B9
S3150800464041727B480178774881727A4801787548C3
S31508004650C1727B4800787949097801EB0020C1B21C
S3150800466070480173754801786E484173744801783B
S315080046706C488173012201466B48FCF7ECFDC9E0E2
S315080046806548007830B90120644908701BE031E0BC
S3150800469052E0AFE060480078012814D19DB90125A1
S315080046A0002610205F49C87162215E480172002108
S315080046B041728172C172017341738173012201468D
S315080046C05948FCF7C8FDA5E09FB901270026102028
S315080046D05449C8716421534801720021417281729C
S315080046E0C172017341738173012201464E48FCF77A
S315080046F0B2FD8FE00025A846A946AA4600205149E2
S31508004700087051490870454908704349087096B9B8
S31508004710012610204349C8716521424801720021CB
S3150800472041728172C172017341738173012201461C
S315080047303D48FCF790FD6DE0BAF1000F13D14FF03C
S31508004740010A10203749C8716321364801720021D1
S3150800475041728172C17201734173817301220146EC
S315080047603148FCF778FD55E02D48407A2F49087006
S315080047702B48807A2E4908702948C07A2D49087036
S315080047802748007B2C4908702548407B2B49087030
S315080047902348807B2A490870B9F1000F29D14FF0C8
S315080047A0010910201F49C87166211E4801721F4859
S315080047B001781C4841721E4801781A4881721D48C2
S315080047C001781848C1721E4800781C49097801EB1F
S315080047D00020C1B213480173184801781148417383
S315080047E0174801780F488173012201460E48FCF7E5
S315080047F032FD0FE00024002500260027A346A04628
S315080048000020009001200449087000200D49087016
S31508004810BDE8F88FA1E60000E0010020E1010020D4
S31508004820CC020020BC020020007C0040E7010020EA
S31508004830E8010020E9010020E4010020E50100204C
S31508004840E6010020E2010020E301002010B502463F
S31508004850002300BF00BF1948C06800F00100002807
S31508004860F8D000BF1548026100BF09E0581C83B2A2
S3150800487040F2DC50834203DD00200880012010BD91
S3150800488000BF0E48C068C0F340000028EED000BF45
S315080048900A480069088000BF00BF0848C068C0F31E
S315080048A0C0100028F8D100BF0448806820F0200016
S315080048B02030024CA06000BF0020E0E700C00040A6
S315080048C001100503020D0403031005030710050371
S315080048D00F100503131005032710050363100503BE
S315080048E0C7100503C7220B070001000000000000DF
S315080048F0FFFFFF1F0100000002000000000000008B
S315080049000200000013000000000000000300000081
S315080049102401000000000000040000005000000010
S315080049200FFFFF1F05000000600000000FFFFF1FBC
S315080049300600000007000000F0FFFF1F0700000048
S3150800494008000000F0FFFF1F080000000900000033
S31508004950F0FFFF5F090000000A000000F0FFFF7F7C
S315080049600A00000000070000FFF0FF1F0B00000010
S3150800497000C00000FF0FFF7F0C00000000000D00C4
S31508004980FFFFF07F0D0000000000E000FFFF0F7F33
S315080049900E0000000000000FFFFFFF700F00000070
S315080049A000000010FFFFFF6F400108200000000014
S315080049B04001082001000000400108200200000014
S315080049C04001082003000000400108200400000000
S315080049D040010820050000004001082006000000EC
S315080049E040010820070000004001082008000000D8
S315080049F040010820090000004401082000000000CA
S31508004A0044010820010000004401082002000000BB
S31508004A1044010820030000004401082004000000A7
S31508004A204401082005000000440108200600000093
S31508004A30440108200700000044010820080000007F
S31508004A404401082009000000480108200000000071
S31508004A504801082001000000480108200200000063
S31508004A60480108200300000048010820040000004F
S31508004A70480108200500000048010820060000003B
S31508004A804801082007000000480108200800000027
S31508004A9048010820090000004C0108200000000019
S31508004AA04C010820010000004C010820020000000B
S31508004AB04C010820030000004C01082004000000F7
S31508004AC04C010820050000004C01082006000000E3
S31508004AD04C010820070000004C01082008000000CF
S31508004AE04C010820090000005001082000000000C1
S31508004AF050010820010000005001082002000000B3
S31508004B00500108200300000050010820040000009E
S31508004B10500108200500000050010820060000008A
S31508004B205001082007000000500108200800000076
S31508004B305001082009000000540108200000000068
S31508004B40540108200100000054010820020000005A
S31508004B505401082003000000540108200400000046
S31508004B605401082005000000540108200600000032
S31508004B70540108200700000054010820080000001E
S31508004B805401082009000000580108200000000010
S31508004B905801082001000000580108200200000002
S31508004BA058010820030000005801082004000000EE
S31508004BB058010820050000005801082006000000DA
S31508004BC058010820070000005801082008000000C6
S31508004BD0580108200900000000C000400D06060024
S31508004BE000D000400E0707000011014010110140D7
S31508004BF0201101403011014040110140501101407F
S31508004C0060110140701101401D1E2F3031323334BE
S31508004C10008001400090014000A0014000B0014022
S31508004C2000C0014000D00140002101404021014060
S31508004C301415000080210140C0210140161700000C
S31508004C4080200140C02001401213000000220140CC
S31508004C50402201401819000080220140C02201406C
S31508004C601A1B000000230140402001401C110000CF
S31508004C7004FA97999999D93FAF788E1DC571CC3F9B
S31508004C809FC678D0099AC33F935555555555E53F64
S31508004C90599322942449D23FDE03CB966446C73FF4
S31508004CA044523EDF12F1C23F00000000000000003F
S31508004CB0D04C0008000000209C02000018090008DB
S31508004CC0F44D00089C020020E4090000B6410008E3
S31508004CD0011362190845140A0B0F0F121115131C3C
S31508004CE0171F19241B251C281D291E2E202F213984
S31508004CF0253A263F28492C53305D34613566376995
S31508004D00386C39713B743C783D7A3E0C11161C2080
S31508004D1024282C2E313235383A3C3C101D262A2CB4
S31508004D2030107A3910480D282C2F303536393B3B50
S31508004D300B1317109C2E3034101C272A2D103C38C4
S31508004D403A3A101B2224101B2F34512E3A0B1718EF
S31508004D501D1019411910380939390B17191D212247
S31508004D605169103A1C1028082B2E3435373838105C
S31508004D70193029103A32101A16104A21102A3410FE
S31508004D804F15191B1E2123108F3637370B14181091
S31508004D9028083536360B131824102B272A101F35EA
S31508004DA0350B121724811A2591780A313234343496
S31508004DB00B11171A101014333434182028303840C1
S31508004DC0485058606870788088905011102030409C
S31508004DD05060708090A0B0C0D0E0F0FF2D55AA7E3C
S31508004DE01804C100098811223344122232420A1DCE
S30908004DF01004015448
S7050800011DD4
