S31508006000501A0020316100085561000857610008E0
S31508006010596100085B6100085D6100080000000026
S315080060200000000000000000000000005F6100089A
S3150800603061610008000000006361000865610008EE
S31508006040A1080208414F02084B4F0208554F0208A3
S315080060505F4F0208694F0208734F020851E80008AB
S31508006060EDE8000811E9000835E9000859E90008D3
S315080060707DE900081515020835150208F1D9010849
S3150800608019DA0108F5BB00081DBC000845BC000864
S315080060906DBC000895BC0008BDBC0008E5BC00083E
S315080060A00DBD000835BD00087DBB0008A5BB00086E
S315080060B0CDBB0008052A02083D2A0208BD7400085F
S315080060C0A10D020855560208B5080208C9080208B3
S315080060D0DD0802086761000825F5010875E800086B
S315080060E0CD1702080000000055750008D57700088E
S315080060F0256A00087169000885690008652A02088A
S315080061008D2A0208B52A0208DD2A0208052B02088C
S315080061102D2B0208DD09020867610008DFF80CD09C
S3150800612000F0D6FB00480047A5600208501A002078
S315080061300D490E4808604FF08041086840F48030E9
S3150800614008600B49086820F08050086009488047B5
S3150800615009480047FEE7FEE7FEE7FEE7FEE7FEE73B
S31508006160FEE7FEE7FEE7FEE70C00004000FF01033E
S31508006170B0880040752302081D610008D2B201E00C
S3150800618000F8012B491EFBD270470022F6E710B52E
S3150800619013460A4604461946FFF7F0FF204610BD87
S315080061A0F0B480EA0102D40F4200B2EB410F02D2EA
S315080061B00246084611464A0042D0C30DDDB2C1F375
S315080061C0C752AD1A202D35DAC1F3160141F4000283
S315080061D004B15242C5F1200602FA06F12A411044DA
S315080061E0B3EBD05F23D0C4B1012DA0EBC35009DCBB
S315080061F0F0BC4FF0004202EAC352DBB200F50000E1
S3150800620000F082B9400000F1807000EBC350A0F1A5
S31508006210807040EAD170490009E0490841EAC07136
S31508006220A0EBC35000F50000400800EBC350F0BCDB
S3150800623000F061B96142012202EB4101001BF6E759
S31508006240F0BC704781F00041AAE780F00040A7E75C
S3150800625080EA010210B502F00043400022D04A004D
S315080062601FD0010E01EB1261C0F35600C2F35602AD
S3150800627040F4000042F40002A0FB022000047F392B
S31508006280140400D0401C50EA124001D44000491EB4
S31508006290C2B20C0604EBD010401C4008802A02D07B
S315080062A003E0002010BD20F00100002900DA0020DC
S315080062B0184310BD30B480EA010202F0004530F000
S315080062C0004221F0004013D090B1C30DD40DC2F3A3
S315080062D01601C0F31600E41A41F4000140F4000266
S315080062E07D34914201D3641C00E04900002C02DA97
S315080062F030BC002070474FF400000023914201D3C0
S31508006300891A034340084FEA4101F7D151B1914236
S3150800631002D14FF0004105E002D24FF0010101E041
S315080063206FF0010103EBC450284430BC00F0E3B819
S315080063302DE9F04D81EA030404F0004B21F00045F5
S3150800634014464FF0000A23F0004150EA050220D017
S3150800635054EA01021DD0C5F30A570246C5F31303D2
S31508006360C1F31300C1F30A5640F4801543F48013B1
S31508006370A7EB0608101BD64608F2FD3873EB050096
S3150800638002D308F1010801E092185B41B8F1000F49
S3150800639003DA00200146BDE8F08D00204FF4801195
S315080063A0064684460EE0171B73EB050705D3121B3A
S315080063B063EB050306434CEA010C49084FEA300033
S315080063C092185B4150EA0107EDD152EA030012D058
S315080063D082EA040083EA0501084305D0101BAB4195
S315080063E006D20122002306E000224FF0004302E015
S315080063F06FF0010253101AEB06004CEB085110EB34
S315080064000A0041EB0B01BDE8F04D00F0ABB896234E
S315080064100022114600F078B80EB540F233410291D9
S315080064200021CDE900110A460B4600F0AAF803B090
S3150800643000BD20F00040C10DC0F3160040F4000076
S315080064407F2901DA00207047962903DCC1F19601FD
S31508006450C840704796398840704720F00040C20D02
S31508006460C0F3160040F400007F2A02DA0020014635
S3150800647070470021962A03DCC2F19602D040704785
S31508006480963A00F019B8C1F30A5210B5C1F31301D0
S3150800649040F2FF3341F480119A4201DA002010BD20
S315080064A040F233439A42A2F2334203DC524200F0EE
S315080064B012F810BD904010BD202A04DB203A00FADD
S315080064C002F1002070479140C2F1200320FA03F33D
S315080064D0194390407047202A04DB203A21FA02F03B
S315080064E00021704721FA02F3D040C2F12002914000
S315080064F00843194670470029A8BF7047401C490041
S3150800650008BF20F00100704710B4B0FA80FC00FA0A
S315080065100CF050EA010404BF10BC704749B1CCF135
S31508006520200421FA04F411FA0CF118BF01212143C1
S315080065300843A3EB0C01CB1D4FEA00614FEA10207C
S3150800654042BF002010BC704700EBC350104400291E
S31508006550A4BF10BC7047401C490008BF20F00100CA
S3150800656010BC704710B5141E73F1000408DA401CFD
S3150800657041F1000192185B411A4301D120F0010054
S3150800658010BD2DE9F04D92469B4611B1B1FA81F244
S3150800659002E0B0FA80F220329046FFF78DFF0446FB
S315080065A00F4640EA0A0041EA0B0153465A46084399
S315080065B013D0114653EA010019D0C8F140025046DB
S315080065C0FFF789FF05460E46504659464246FFF7ED
S315080065D073FF084305D0012004E020463946BDE88C
S315080065E0F08D0020054346EAE0762C4337430A98A7
S315080065F06305E40AA0EB08000022FD0A44EA4754B2
S315080066000A3002D500200146E9E70105101969415B
S31508006610DDE9084500196941BDE8F04DA2E72DE915
S31508006620FE4F804681EA0300C00F0C46009021F019
S31508006630004123F00045B8EB0200A94105D24046C7
S31508006640214690461C460B46024623F0004010435E
S3150800665047D0270DC7F30A00C3F30A510290401A20
S31508006660019040286BDAC3F3130040F4801B0098AE
S31508006670924620B10023D2EB030A63EB0B0B019879
S315080066805946C0F140025046FFF716FF06460D462A
S3150800669050465946019A00F02DF910EB0800614161
S315080066A0002487EA115284EAE7731A4340D0009A15
S315080066B062B3019A012A4FEA075215DC001B61EB07
S315080066C002014FF0004202EA0752CDE90042001CDF
S315080066D041F5801132462B46FFF753FF03B0BDE85C
S315080066E0F08F40462146F9E7001B61EB0201001CCA
S315080066F041F5801300185B412018A2F5001747EBF7
S31508006700030140EAD570B6196D4111E06D084FEAEC
S31508006710360645EAC0754FEA0752001B61EB0201CF
S31508006720001C41F5801149084FEA30000019514113
S3150800673032462B4603B0BDE8F04FFFF713BF00986B
S31508006740012240000023D0EB020263EBE0730098BD
S3150800675021464FEAE074B8EB000061EB0401E9E773
S3150800676083F000435BE781F0004158E72DE9FE4FCF
S3150800677081EA030404F0004421F0004100944FF03C
S31508006780000B23F0004350EA01045ED052EA0304EA
S315080067905BD0C3F30A54C1F30A552C44A4F2F3346C
S315080067A00194A0FB0254C1F3130141F48011C3F311
S315080067B0130343F4801301FB024400FB034E840ACF
S315080067C0970A44EA815447EA8357A4FB0768029567
S315080067D08D0A05FB07854FEA932C04FB0C54270505
S315080067E0029D4FEA065847EA1637B5EB08056EEBE1
S315080067F0070C870E920E47EA811742EA8312A7FB17
S315080068000201B6EB0B0164EB00042B0D43EA0C33D3
S315080068105E1844EB1C50DA465146E7FB0201C5F305
S3150800682013044FEA0B3343EA14534FEA0432019C2C
S3150800683043EA0603A4F10C040294009CCDE900B4D3
S31508006840FFF79FFE03B0BDE8F08F00200146F9E789
S3150800685070B521F0004303430CD0C1F30A55002458
S31508006860D5EB040564EB0403D617AD1AB34102DB76
S315080068700020014670BD201841EB025170BD0EB5CF
S31508006880C10F80EAE0700844CA07002140F233438A
S315080068908DE80E000A460B46FFF773FE03B000BDEF
S315080068A030B5041E71F1000404DB4FF00044404289
S315080068B064EB0101141E73F1000405DB1C464FF05E
S315080068C00043524263EB04038B4208BF824230BD49
S315080068D0064C074D06E0E06840F0010394E807001F
S315080068E098471034AC42F6D3FFF71CFCF87E020832
S315080068F0187F0208202A06DBCB17203A41FA02F055
S3150800690043EAE07306E041FA02F3D040C2F12002FE
S31508006910914008431946704770B58C1810F8015B0A
S3150800692015F0070301D110F8013B2A1106D110F81A
S31508006930012B03E010F8016B01F8016B5B1EF9D11E
S315080069402B0705D40023521E0DD401F8013BFAE7A4
S3150800695010F8013BCB1A921C03E013F8015B01F80F
S31508006960015B521EF9D5A142D8D3002070BD0000A4
S3150800697010B50348006810B101490868804710BD82
S31508006980780B002010B50348406810B101494868E3
S31508006990804710BD780B002030B50A290ED203694E
S315080069A001EB41050724AC40A3430361036901EBEE
S315080069B0410402FA04F42343036111E0C368A1F118
S315080069C00A0404EB44050724AC40A343C360C36828
S315080069D0A1F10A0404EB440402FA04F42343C36055
S315080069E030BDCA4302607047012906D100BF8268DC
S315080069F042F00102826000BF06E000BF826822F012
S31508006A000102826000BF00BF704702461068084056
S31508006A1008B1012070470020FCE70146C86C80B227
S31508006A207047000010B50348006810B101490868AE
S31508006A30804710BD800B002070B505460C46002621
S31508006A40284600F05FF86E6826F47846D4E9041004
S31508006A5040EA4100E16840EA8100A16840EAC100D5
S31508006A60616840EA011046EAC0266E6020686968D7
S31508006A7060F39651696000BFA069696860F30A21EE
S31508006A80696000BF00BF0E48006820F47F200C49EB
S31508006A900860081D006820F47F00091D086000BF13
S31508006AA000BF081F006820F07F60091F0860081DE6
S31508006AB0006820F07F40091D086000BF70BD000017
S31508006AC040880040082008490870002007490880C7
S31508006AD00749088007490880074908800749088048
S31508006AE007490880704700000000002002000020C7
S31508006AF00400002006000020080000200A000020EC
S31508006B000C00002010B504460121222001F0BAFD30
S31508006B100121222001F050FE10BD000030B50729E2
S31508006B2010D2436B4C1E04EB84051F24AC40A343D0
S31508006B304363436B4C1E04EB840402FA04F42343B8
S31508006B40436324E00D2910D2036BCC1F04EB8405A4
S31508006B501F24AC40A3430363036BCC1F04EB8404DC
S31508006B6002FA04F42343036311E0C36AA1F10D0496
S31508006B7004EB84051F24AC40A343C362C36AA1F196
S31508006B800D0404EB840402FA04F42343C36200BF31
S31508006B90054B1B68C2F11F050124AC40A343024CF8
S31508006BA0236000BF30BD00000C480040012906D113
S31508006BB000BF426842F00042426000BF06E000BFE4
S31508006BC0426822F00042426000BF00BF7047426838
S31508006BD022F4401242600A68436862F31453436021
S31508006BE000BF4A68436862F35553436000BF704765
S31508006BF030B5404B18781B88802B00DB7F203E4B36
S31508006C001B78CBB13D4B18701B784FF47F6404EAB0
S31508006C1003133B4C238020233A4C23703A4B1870BD
S31508006C201B783A4C236023461B684FF4FF3404EA6A
S31508006C308313364C23605BE0314B1B882F4C24783A
S31508006C401B1B03442E4C2380304B1B682E4C247888
S31508006C501B1B03442D4C236023461B88C3F3871351
S31508006C60294C2370264C2388DC1703EB1474C4F3D1
S31508006C700714224D2C702B461B78254C2478A342EA
S31508006C8036DA234B1B785B1D834231DD2B461B7896
S31508006C90834202DA00231F4C23701E4B1B78FF2BFE
S31508006CA004DA1C4B1B785B1C1A4C2370194B1B7897
S31508006CB0102B1DDA134B1B781909124B1B785B1A1C
S31508006CC0104C23700D4B1B781B1A59B20B4B1B78B3
S31508006CD0984201DD4B4259B20A4B1B780B449AB2D3
S31508006CE0FF2A02DD074C227002E0FF23054C2370C1
S31508006CF030BD000004060020B70400200806002066
S31508006D001A0600201C0600200E0600201006002089
S31508006D10967102081D060020012913D1174A02EBB5
S31508006D2040025278FF2A08DA144A02EB40025278E7
S31508006D30521C124B03EB40035A7000220F4B03F808
S31508006D40102019E089B90D4A12F81020FF2A06DA30
S31508006D500A4A12F81020521C084B03F81020002289
S31508006D60064B03EB40035A7006E00022034B03F878
S31508006D70102003EB40035A7070470000AC02002055
S31508006D8000200DE0144931F81010FF2906DA1249DF
S31508006D9031F81010491C104A22F81010411CC8B2CC
S31508006DA04128EFDB0D490978491C0C4A11700C493A
S31508006DB00978491C0A4A11700A490978491C094A7E
S31508006DC0117009490978491C074A11700749097859
S31508006DD0491C064A11707047920F0020980300203C
S31508006DE0990300209A0300209B0300209C0300209F
S31508006DF00A490978C1F3001101B1704728280BDC4C
S31508006E00411E074A515CFF2906DA411E515C491C9E
S31508006E10CAB2411E024B5A5400BFEEE76305002072
S31508006E205C0D00207047000005480068782805D9E1
S31508006E300448007820F08000024908707047000076
S31508006E40740500209204002010B52B48007800280D
S31508006E5050D02A48007838B10DF0D8FA01202849D0
S31508006E6008702849088045E027480078C0F3C00024
S31508006E7050BB2648007820BB2348007820F008003D
S31508006E800830214908702248007820F04000403038
S31508006E901F4908701F4840781F490978884229DA2F
S31508006EA01C484078232825DC1C48007820F0100070
S31508006EB010301A4908701A480088401C184908807A
S31508006EC018E018F083F815E01048007890B91348D0
S31508006ED0007820F01000103010490870104800881B
S31508006EE0401C0F4908800A48007820F040004030CE
S31508006EF00749087010BD00005B04002058040020F4
S31508006F00B3040020EA03002096040020560400205B
S31508006F109E040020BC0400209D710208B1040020D4
S31508006F20EC0300201CB551480078C0F3400038B97E
S31508006F304F4890F90000142802DA20204D490880AD
S31508006F4002F056FB18F01CF94B4890F900004B4923
S31508006F50B1F90010CDE900104948B0F900304948A8
S31508006F60B0F900204848007841B2002008F02EFC0D
S31508006F7007F0B2FE032245494548007840B210F0B2
S31508006F8001FBC0B243490880084600881E2801DD77
S31508006F901E2008803F480088022802DA02203D4960
S31508006FA008803C48008800EB4001C1EBC0104FF652
S31508006FB0FF7101EA40003749088037480078C0F376
S31508006FC0401008B118F076FF34480078072816D123
S31508006FD0274800780A2812D1314800780C2805D1AC
S31508006FE0304800780C2801D117F0BAFC00202E4949
S31508006FF008702E4908702E4908701D4908702D48DA
S315080070000078C0F3400058B12B480078C00938B161
S3150800701017F0A6FC2748007820F0020025490870DA
S315080070201E480078FB2804D1114890F90000801DFD
S3150800703038B11A480078012816D10D480078012879
S3150800704012D102F08FFA0020194908700849087011
S315080070501A480078074908801049088018480078B7
S3150800706020F02000164908701CBD0000910400207D
S315080070703A040020C004002069050020900A002078
S315080070808E0A0020C2060020C0060020A8C80308F1
S31508007090260600201004002096040020380400204C
S315080070A03B0400203C040020310400203204002068
S315080070B033040020630500206005002020770208BD
S315080070C09204002010B51EF001FA14F079FC14F0B1
S315080070D059FC00201C4908601B49083108601B48F8
S315080070E000681B490988884218D21A480078C0F3F4
S315080070F0400098B918480078C0F3800088B913484A
S31508007100006805280DD9FF2014F03CFE12480078C7
S3150800711020F00400001D1049087002E000201FF04E
S31508007120FFF800F043F910F0C5FA0C48007820F093
S3150800713020002030094908700020094908800949BB
S3150800714008701EF037F910BD2407002374050020C7
S31508007150B2710208AE040020D00400209604002074
S315080071600E040020B404002002460B460548C0560B
S315080071708118002900DA0021FF2900DDFF21C8B2A5
S3150800718070470000F610002019B900220E4B1A5459
S3150800719019E001290AD10C4A1256782A13DA0A4A42
S315080071A0125C521C52B2084B1A540CE04A1C52B9D3
S315080071B0054A125612F1780F05DD034A125C521E73
S315080071C052B2014B1A547047F610002002460B467D
S315080071D00648C056811811F17E0F01DA6FF07D015D
S315080071E07E2900DD7E2148B270470000F610002097
S315080071F02DE9F04104460D46164600270020284989
S315080072000860284908702849088080460EB1274931
S31508007210087000273EE025480078322802DB002067
S31508007220224908702148007820B9002020490870B2
S315080072304FF0010821461D48007801F0BBFE10B347
S315080072401B480078401C1A4908701A4817490978DB
S3150800725030F811001449088017481449097830F89D
S3150800726011000F490860154810490978405C0D4916
S3150800727008700B48006830B10C480078401C0B4970
S31508007280087005B108E009480078401C07490870ED
S31508007290781CC7B2322FBEDB00BF4046BDE8F0817E
S315080072A0B4030020BA030020B8030020C30300205B
S315080072B0C2030020D2740208BC7302082C740208A8
S315080072C00146002000BF04E00A5C034B1A54421C26
S315080072D0D0B20828F8DB7047EC0100202DE9FC4104
S315080072E00020009001902A484078041128484078E8
S315080072F000F00F052648877800264FF6FF7000EA4B
S31508007300043400EA052522480078152805D12946BF
S3150800731020461FF012F806460EE01D48007834286D
S315080073200AD13A46294620461FF082F829464FF4E4
S3150800733080501FF002F80646FE208DF80000301235
S315080073408DF80100F0B28DF8020011480078272860
S3150800735015D18DF800000F4800788DF801000E4809
S3150800736000788DF802000D4800788DF803000C4867
S3150800737000788DF804000B4800788DF805006B46F8
S3150800738008220021084800F0C5FCBDE8FC81000081
S31508007390EC010020CB040020AB040020CD04002023
S315080073A0CC040020CF0400200140F59010B52F48EA
S315080073B0B0F900002E49B1F90010884204DA2C48C9
S315080073C0B0F90000294908802A48B0F90000284980
S315080073D0B1F90010884222DD274800782749098834
S315080073E0484384B2204611F0E9FC04461F49B1F926
S315080073F000101F4AB2F90020891A01FB04F0C117D0
S3150800740000EB1151091309B21D4A1180184800886A
S3150800741011460988084400B21649088007E014484E
S31508007420B0F9000013490880002015490880134860
S31508007430008840280EDC11490988C1F14001114A2B
S31508007440126801FB02F0C11700EB916189110E4A1F
S31508007450116002E000200C4908600C48007820B949
S315080074600448B0F900000A49088010BD62060020E9
S315080074702806002030060020140700207A05002080
S315080074804406002058060020540600206004002008
S315080074906806002010B503460C46501E584301B234
S315080074A0081901B291FBF2F001B2002900DA0021B5
S315080074B0FF2900DDFF21C8B210BD000070B51248D3
S315080074C0006878B100BF11480068C0F30020044680
S315080074D00E480068C0F3402005460B48214602685E
S315080074E02846904700BF0948006820F00200801C23
S315080074F00649086000BF00BF0846006820F0010082
S31508007500401C086000BF70BDC00B002024840040EA
S3150800751070B50126002408E020461FF0CBF9054681
S31508007520FF2D00D00026601CC4B2E92CF4DB7EB126
S3150800753000240BE020461FF0E3F905461DF0C6FFC0
S31508007540294620461FF071FC601CC4B2E92CF1DB09
S3150800755070BD000010B5024800F044F910BD0000E7
S315080075600078004070B505460E46144605F08000C2
S3150800757000285DD000BFD4F8A000C0F30160002841
S31508007580F7D08C49204600F0BEFA00F03DFB89484A
S31508007590006820F060408849884207D18548C0794C
S315080075A008B1012000E0002084490860814800688D
S315080075B020F0604040F21171884207D07D4800688B
S315080075C020F0604040F2DF71884231D17C48006883
S315080075D000F0604000F291707949086008464068FA
S315080075E020F00F00083048600846006820F0804008
S315080075F008600846006820F0005008606D48407A28
S31508007600032816D10620C87150216D48017203213E
S315080076104172002181723221C172132101738821BE
S3150800762041730021817301220146664800F0A3FADE
S31508007630BDE06048407A0228FAD15E48006820F02A
S31508007640604040F211718842F2D103205C49C8714A
S315080076507F215B48017210214172782181720021D5
S31508007660C17201734173817300BF0121554800F04F
S3150800767039FA0028F9D100BF01225149514800F0D2
S315080076807AFA0028F8D10FF00FFE4D48006800F08E
S31508007690604000F589704A4908604B480078C8710F
S315080076A04948401C0178464801724748801C0178C1
S315080076B0434841724448C01C017841488172424897
S315080076C0001D01783E48C1723F48401D01783C487C
S315080076D001733D48801D0178394841733A48C01DF9
S315080076E001783748817300BF0121364800F0FAF95E
S315080076F00028F9D100BF01223149324800F03BFA8F
S315080077000028F8D13048083000782D49C8712E482D
S31508007710093001782A4801722B480A30017828482E
S31508007720417229480B3001782548817226480C3069
S3150800773001782348C17224480D3001782048017326
S3150800774021480E3001781E4841731F480F300178D2
S315080077501B48817300BF01211A4800F0C3F90028AD
S31508007760F9D100BF01221649164800F004FA00288C
S31508007770F8D100BF00BF00BF00BF00BFBFF34F8FE7
S3150800778000BF00BF00BF1148006800F4E060104960
S315080077900843001D0D49086000BF00BF00BFBFF3C6
S315080077A04F8F00BF00BF00BF00BF00BFFDE701202D
S315080077B070BD0000300C0020FD3EEF180C070023BA
S315080077C0200C002000780040003F00200CED00E06F
S315080077D00000FA0510B5024800F004F810BD0000D4
S315080077E0007C00402DE9F0470446A4200059C0F368
S315080077F00726A4200059C0F307474FF00008204683
S3150800780014F04CFF81462B4800EBC905A42000590B
S3150800781066F30F20A4210851A420005967F31740E6
S31508007820085106F0730010B907F0150098B306F072
S31508007830020068B32878C0F3800048B3D4F8A000E3
S31508007840C0F3C01020B3D4F8A00000F00100F8B9C6
S31508007850D4F8A00020F08000C4F8A000287800F032
S31508007860010040B154F8A00F40F01001206861F300
S31508007870070044F8A0092878C0F3400040B154F83E
S31508007880A00F40F00801206861F3070044F8A0093A
S3150800789046EA07206880686850B146EA072242EA45
S315080078A00840B0221259C2F3421122466B68984723
S315080078B0BDE8F087A811002010B50FF063FA10BDD7
S315080078C00020034908700349087003490870704787
S315080078D00E0000200F000020100000202DE9F84FB0
S315080078E004460D469146204614F0D8FE0646002763
S315080078F0DFF8E8814FF0FF0A022E73DA002D71D007
S31508007900B9F1000FFBD0BA460020754901EBC60154
S3150800791048802878C0F3C00028B1002211463046B6
S3150800792000F0DBFE04E001221146304600F0D5FEE9
S3150800793006F11C01C8B2012100F0A4FE06F11E01E1
S31508007940C8B2012100F09EFE06F11C01C8B2012151
S3150800795000F032FF4946204600F03AFA686808B156
S31508007960D5F80480002718E007EB470008EB8000ED
S315080079704078009007EB470008EB8000836807EB28
S31508007980470008EB8000426807EB470018F820100C
S31508007990204600F057FA781CC7B2102FE4DBD4F85B
S315080079A0A00020F08000C4F8A000A420005920F010
S315080079B0704000F10040A4210851A420005920F08D
S315080079C0706000F130600851287800F0070003283D
S315080079D009D1D4F8A00020F4804000F58040C4F80E
S315080079E0A00019E077E0287800F00700042807D1FE
S315080079F0D4F8A00020F020002030C4F8A0000BE046
S31508007A00287800F00700052806D1D4F8A00020F051
S31508007A1040004030C4F8A00028784109304850F8A2
S31508007A20360061F382002E4941F83600287881092C
S31508007A302B4850F8360061F30000294941F8360012
S31508007A4054F8A01F60F3041121602878C10924485E
S31508007A5050F8360061F34100214941F836004108E3
S31508007A60206861F3C30020602888010A206861F352
S31508007A70555020602888410A206861F39E7044F8B2
S31508007A80A0092878C0F3001028B3A420005920F0D4
S31508007A90FF00FE30A4210851A420005920F47F00DD
S31508007AA000F5281008512878C0F300100C4901EB9E
S31508007AB0C601487006F12A0148B2002809DB00F021
S31508007AC01F02012191404209920002F1E022C2F808
S31508007AD0001100BF00BF5046BDE8F88F547B02086E
S31508007AE0A8110020024621B9D2F8A000C0F3003040
S31508007AF07047D2F8A000C0F30140032801D1012045
S31508007B00F6E70020F4E710B50246002000BFD2F8D9
S31508007B10A030C3F301630BB901202BE013680C688E
S31508007B2063F31C040C6053689C090B6864F35D736B
S31508007B300B605368DC090B6864F39E730B6053682B
S31508007B404C6863F303044C600B68C3F340734BB98A
S31508007B500B7903F00F032BB19368C1F80730D4688B
S31508007B600B235C50D2F8A03023F0805303F18053E6
S31508007B70C2F8A03010BD2DE9F04104460E46154660
S31508007B8000272946204600F01FFAB0BB2A46314690
S31508007B90204600F099F929460020D4F8A020C2F31F
S31508007BA040320AB101221CE041B9D4F8A02022F4DF
S31508007BB0805202F58052C4F8A02011E040B1D4F8F2
S31508007BC0A02022F4806202F58062C4F8A02007E0B3
S31508007BD0D4F8A02022F4007202F50072C4F8A0209E
S31508007BE0002212B16FF001070AE02946204600F08C
S31508007BF0D1F928B16FF0020702E0FFE74FF0FF372F
S31508007C003846BDE8F081000010B588B002A804AB7C
S31508007C1005AA06A9009007A800F05AF800284AD134
S31508007C202649079888421DD1002405E002A8015D6F
S31508007C3023480155601CC4B2082CF7DB2048DD3800
S31508007C4090F8E70020F00100401C1D49DD3981F855
S31508007C50E700084690F8E60000211948DD3880F864
S31508007C60E61028E040F2DF710798884203D00798AB
S31508007C70B0F5FC6F11D11348007A20F00100401CC2
S31508007C8010490872002405E002A8005D0D49085550
S31508007C90601CC4B2082CF7DB0DE00B490798884234
S31508007CA009D102A8FFF70CFB0848007820F020004D
S31508007CB020300649087008B010BD0000FA3DEF18DC
S31508007CC0FD0E0020540F00200140F510CA040020C4
S31508007CD070B50446049D0E48006820F06040206098
S31508007CE00B480068C0F3807010700948007900F0EE
S31508007CF00F001870002005E0054EF61D365C2E5460
S31508007D00461CF0B21E788642F6DC002070BD0000E4
S31508007D10300C00202DE9F0410546884616461C46DB
S31508007D20002705F0004068B11D48006865F31C008F
S31508007D301B4908600846006820F0804000F1804032
S31508007D4008600AE01648006865F31C0014490860D4
S31508007D500846006820F0804008601148006820F056
S31508007D6000500F4908600846406866F303004860FB
S31508007D702078C87161780A480172A1784172E17861
S31508007D8081722179C17261790173A1794173E179AF
S31508007D90817300F007F807463846BDE8F081000011
S31508007DA0200C002010B5044601210848FFF79AFE6A
S31508007DB048B9012221460548FFF7DDFE08B901202A
S31508007DC010BD0020FCE70020FAE70000007800401C
S31508007DD0D0F8A02022F080028032C0F8A0204B788C
S31508007DE0A822125863F30702A8231A508B78A822F0
S31508007DF0125863F30E22A8231A50CB78A8221258D9
S31508007E0063F31642A8231A500B78A822125863F374
S31508007E101F62A8231A5070472DE9F04105460C4603
S31508007E20284614F03BFC0646002724B1044800EB1C
S31508007E30C600446000E001273846BDE8F08100002E
S31508007E40A8110020F0B50446059D0020102904DA83
S31508007E50D4F8A060C6F3C0160EB9012033E035B3D6
S31508007E60B426365961F30706B4273E51B826365963
S31508007E7062F31E06B8273E5141F02007B42636594C
S31508007E8067F30706B4273E51B826365963F31E062C
S31508007E90B8273E5101268E40B4273F5946EA174770
S31508007EA0B426365967F31F46B4273E510BE0B4266D
S31508007EB03659360C01278F40BE43B4273F5966F31F
S31508007EC01F47B4263751F0BD10B532B9D0F8A030E7
S31508007ED023F40043C0F8A03007E0D0F8A03023F41C
S31508007EE0004303F50043C0F8A0300B68046D63F344
S31508007EF01C0404650B685C0F436D64F386134365C5
S31508007F000B689C0F436D64F3C71343650B79446D87
S31508007F1063F3030444650B68C3F340734BB90B79E9
S31508007F2003F00F032BB1D1F8074084650B235C5887
S31508007F30C465012A07D1D0F8A03023F4800303F5DD
S31508007F408003C0F8A03010BD70B50546284614F069
S31508007F50A5FB0446FF26022C19DA0026D5F8A00050
S31508007F6020F080008030C5F8A00004F11C01C8B2DA
S31508007F70002100F021FC04F11C01C8B2002100F028
S31508007F8081FB04F11E01C8B2002100F07BFB3046DC
S31508007F9070BD000070B505460C460026284614F04C
S31508007FA07DFB084901EBC000407848B924B928464A
S31508007FB01DF010FB064603E028461DF02BFB06467F
S31508007FC0304670BDA811002030B502460B46002188
S31508007FD0002063B900BFD2F8A040C4F3003404B946
S31508007FE004E00C46491C0B4DAC42F4D30DE000BF2F
S31508007FF0D2F8A040C4F30144032C00D004E00C4698
S31508008000491C044DAC42F3D300BF024CA14200D335
S31508008010012030BDA08601002DE9FC41FE4800681C
S3150800802008B1BDE8FC81002501E0681CC5B20A2D2F
S31508008030FBDBF948006800B1F3E7F8480088F8491F
S315080080400880F848006AF549088008460088F44917
S315080080500988401A80B2282800DAE2E70020F249A7
S315080080600870F2480078401CF0490870F04800781B
S31508008070401CEF490870EF48007840B9EE48007890
S31508008080FF2804DAEC480078401CEB490870E748FA
S315080080900078172802DD0120E4490870172507E053
S315080080A0681EE64931F8100021F81500681EC5B2A9
S315080080B0012DF5DAD9480088D9490988401ADF49D7
S315080080C008808888C11700EB91718E104FF6FF70F3
S315080080D000EA4607D9484088D8490988394489B208
S315080080E0884272DDD5484088D4498988394489B29E
S315080080F08842F6DDD1488088D049C988891B89B26B
S315080081008842EEDDCD488088CC49C988314489B299
S3150800811088425ADAC84800780928E2DDC548007856
S3150800812058B1C24800780A2807DCC04800780228F7
S3150800813003DDBF4800781A28D3DDBC48007802283A
S3150800814008D0BF480078FF2804DABD480078401CEC
S31508008150BB4908700220B5490870B5490870B94886
S315080081600088B9490880AD480088B6490880AB48F8
S315080081700088B6490880AF48007838B3AF48808889
S3150800818000EB40004FEAC008AE480088AE490988AF
S31508008190401AAF4908800020AE490870B8F5304F3C
S315080081A009D3AB48008847F6FF71884203D24FF6D9
S315080081B0FF70A7490880A84800780A2818DAA64850
S315080081C00078401CA449087012E062E0FFE7A34863
S315080081D0007818B14EF6FF709D490880A0480078CF
S315080081E020F0800080309E49087002209A49087065
S315080081F000209C490860994908709B49087001202D
S315080082009A4908708B490870994800780009C04354
S315080082109749097860F304119548017095480078E4
S3150800822020F001009349087091480078C0F3401087
S31508008230B0B18F480078C0F3401020B18C48007860
S31508008240C0F3001060B98C480078032808DB8B4817
S31508008250007800F00100E0B189480078042818DDAC
S3150800826088480078C0F3401060B187480078C0F3AA
S31508008270801070B185480078702803DB8448007840
S315080082801E2806DA7B48007820F00100401C794950
S31508008290087066480078062806D1604800887D4937
S315080082A008800020714908706D480078C009E0B15F
S315080082B05E480078092818D17748007820F0010030
S315080082C0401C754908707548007820F0020073490B
S315080082D008706748007820F00100401C644908705F
S315080082E06F48018864200EF01BF961480078C0F3D6
S315080082F00010E8B36B480078C009C8B36A4800782C
S31508008300C009A8BB49480078102834DA47480078DD
S31508008310072830DD6548008884B2444800780C2870
S315080083200ADA6348B0F90000642805DA40F2DC503E
S31508008330844206DD044604E040F2E240844200DD61
S315080083400446214664200EF0EBF85748007820F0E2
S3150800835080008030544908705248007820F0800028
S31508008360504908705348007820F00800083000E0AB
S3150800837001E0504908703E480078C0F30010B0B3D9
S315080083802A480078162832D13E480078C0F34010B3
S3150800839068BB49480088494908802C4800884849EC
S315080083A0088020484068474908803B48007820F004
S315080083B00100401C384908703848007820F002004F
S315080083C0364908702A48007820F00100401C2849E0
S315080083D008703648008881B23B4800880EF0A0F83D
S315080083E03148007820F0800080302F4908701C48FA
S315080083F00078C00970B10D480078082869D10F487F
S315080084008088B0F5026F64DA0448008800F5967033
S3150800841084B25BE05DE00000840C0023AA0A002019
S31508008420A80A002000500140A3050020A40A002045
S31508008430A50A00205B040020A60A00207811002067
S31508008440B00A0020AC0A0020AE0A0020BE040020B4
S31508008450BC040020A30A0020BE0A002058040020FD
S3150800846061050020F403002056040020570400206C
S31508008470B0040020AB04002038040020AA04002021
S3150800848072060020B9060020A8040020BB060020BA
S31508008490BA0600207A0A0020BA0400209B040020AD
S315080084A0100400206D060020AD0400209C07002063
S315080084B026060020BB0400205E0200205C02002085
S315080084C0680200206A0200207E070020204613F07A
S315080084D017FB56480078C00958B15548007809284E
S315080084E007D15448008800F5967084B2204613F0E8
S315080084F02BFB5148007820B15048007808B1504805
S3150800850000784E48007800287ED0494800784D49C2
S3150800851091F9001088423ED147480078D8B34A48B6
S31508008520007818B949480078082834DD01204849F8
S315080085300870484800883F490988084484B2414879
S3150800854000788DF80000434800788DF8010041480E
S31508008550008800128DF802003F4800788DF8030065
S315080085603D48008800128DF80400314800788DF8DF
S315080085700500E0B28DF8060020128DF807006B465C
S31508008580082200213548FFF7C5FB204613F0B8FA44
S3150800859001203349087026480078324991F90010BD
S315080085A0884240D13048008822490988084484B264
S315080085B02B48007848BB01202C490870204613F048
S315080085C0C3FA284800788DF80000274800788DF807
S315080085D001002548008800128DF80200244800781A
S315080085E08DF803002248008800128DF80400104810
S315080085F000788DF80500E0B28DF8060020128DF897
S3150800860007006B46082201E00DE005E0002113484B
S31508008610401CFFF77FFB06E0002014490870154848
S3150800862040681549088000BFFBE40000610500208A
S31508008630A40A0020AA0A0020B10A0020B4040020D7
S31508008640B1040020B30A0020B70400200906002060
S31508008650B40A0020DA010020D60100200100DE98C5
S31508008660B80A0020B20A0020D8010020B90A002062
S31508008670D401002000500140BC0A002010B510F0BB
S315080086807BFC10BD70B503460C46002000211A4637
S31508008690202A01D20B4907E0242A03D20949091DD9
S315080086A0203A01E04FF0FF3059B12CB10D68012690
S315080086B0964035430D6004E00D6801269640B543A3
S315080086C00D6070BD0400004010B504462346032221
S315080086D00821C8061DF01EF910BD70B506460C46E1
S315080086E0154666B9234601221A2148071DF012F9D4
S315080086F02B4602221C2150071DF00CF90BE02346DD
S3150800870001221B2190071DF005F92B4602221E2186
S3150800871050071DF0FFF870BD10B504462346012228
S31508008720142108071DF0F6F810BD000010B5044620
S3150800873023460822112102481DF0ECF810BD00005E
S315080087409088004010B50446234602221C210248A0
S315080087501DF0E0F810BD00009088004010B50446F2
S31508008760234602221E2102481DF0D4F810BD00003F
S315080087709088004070B504460D462346012218210C
S3150800878090071DF0C7F82B460222114650071DF028
S31508008790C1F870BD10B504462346042211461007D9
S315080087A01DF0B8F810BD10B5044623460222002174
S315080087B050071DF0AFF810BD70B503460C460020F3
S315080087C000211A46202A01D20B4907E0252A03D29E
S315080087D00949091D203A01E04FF0FF3059B12CB183
S315080087E00D680126964035430D6004E00D680126A4
S315080087F09640B5430D6070BD1800004010B58B4A11
S31508008800127802F001022AB9894A127822F0020285
S31508008810874B1A70864A127822F00102844B1A7026
S31508008820824A127822F04002804B1A701A46127851
S3150800883022F080021A707E4A127822F080027C4B5F
S315080088401A701A461278C2F3C0021AB10122794B7D
S315080088501A7002E00022774B1A70774A1278C2F330
S31508008860C0021AB9754A1278D20912B10022714BA0
S315080088701A706F4A127822F004026D4B1A706D4A0C
S3150800888012782AB11A46127822F00402121D1A70BA
S315080088906B4A1278C2F340123AB1694A1278C2F3A7
S315080088A0400212B90022674B1A70502802DD0022D6
S315080088B0604B1A705F4A92F90020002A02DA0022F9
S315080088C05C4B1A70594A127802F00102002A27D125
S315080088D0584A12782AB3564A127822F01002544B94
S315080088E01A70554A127822F00402121D524B1A7059
S315080088F04F4A127822F00102521C4D4B1A701A4642
S31508008900127822F00202921C1A704A4A1278521EF3
S3150800891052B2484B1A704C4A1278521C4A4B1A707B
S3150800892083E04A4A1278002A7FD0414A127822F018
S3150800893010023F4B1A70424A1278C2F3401232B103
S315080089403F4A1278C2F340020AB1502801DB3028A8
S315080089505ADA082958DC11F1080F55DB394A12781A
S31508008960002A62D0374A1278521E364B1A701A46B7
S31508008970127802F00F029ABB2F4A127822F00402EC
S31508008980121D2D4B1A702A4A127822F00102521C27
S31508008990274B1A702E4A1278062A15DC2D4A1278A9
S315080089A0D20942B12C4B1A78D31702EB5373DB105A
S315080089B02A4C23700BE0284B1A78D31702EB537313
S315080089C0DB10264C237002E00522244B1A70244A39
S315080089D01278521C224B1A700122224B1A7024E07C
S315080089E0FFE7184A127802F00F02012A1DD1194A28
S315080089F01278D209CAB9184B1A78D31702EB5373EF
S31508008A00DB10164C237010E00B4A127822F0040291
S31508008A10094B1A70064A127822F00102044B1A70A2
S31508008A201A46127822F002021A7010BDB00400200D
S31508008A30AF04002079070020B10400209A04002022
S31508008A40B9060020780700207B0700205D04002077
S31508008A50380400206C0600208E0800207A070020C3
S31508008A607C070020A80700207FB5A84800884EF696
S31508008A70FF7188427AD0A6480078C0F3C00008B1D2
S31508008A80102601E0A348067800200F21A24BCDE965
S31508008A900031A24BCDE90210A1480278A14801781D
S31508008AA0A14809F0A9F8A149088008460088FA21D2
S31508008AB04843192190FBF1F09D4908800846008833
S31508008AC09C4908809C4890F90050002D01DA6842BC
S31508008AD045B28E480088C0B28DF808008B480088D9
S31508008AE000128DF809008948008800148DF80A00DC
S31508008AF086480088C0178DF80B0000208DF80C00FA
S31508008B008DF80D008D4800788DF80E0000208DF840
S31508008B100F0002AB082200218948FFF7FBF87B48C3
S31508008B200088684340F2022190FBF1F085490880ED
S31508008B30814890F90000002806DB7D4800880988EE
S31508008B400844814908801DE0794800887D490988DC
S31508008B5088420CDB764800887A490988401A7A499F
S31508008B60088008460088794908800BE0CDE07548FA
S31508008B7000886F490988401A7349088008460088A2
S31508008B80734908807048008800EB002040005F4960
S31508008B90098890FBF1F004B26E480480664890F9A3
S31508008BA00000002802DB6C48048015E06048008855
S31508008BB064490988884206DB67480480B0F90000E2
S31508008BC06649088008E0604200B2634908800846A2
S31508008BD0B0F90000624908805D4800788DF8080001
S31508008BE05B48008800128DF809005A4800788DF80D
S31508008BF00A0058480088000A8DF80B005748007884
S31508008C008DF80C0055480088000A8DF80D00544868
S31508008C1000788DF80E0052480088000A8DF80F007B
S31508008C2002AB0822002146481038FFF773F84D4872
S31508008C30008801B2404890F9000000F0E5FB4A4977
S31508008C4008704848008801B24348B0F9000000F0AF
S31508008C50DBFB4649087001233A48028841480088E8
S31508008C6001B2414890F9000014F034FE40490880EA
S31508008C700023354802883B48008801B23B4890F9F2
S31508008C80000014F027FE3B4908803B480078072877
S31508008C9011DA364890F9000038490870324890F9D8
S31508008CA0000037490870324800883649088031483C
S31508008CB00088354908802C4800788DF808002B482C
S31508008CC000788DF809002A4800788DF80A002848A7
S31508008CD0008800128DF80B00264800788DF80C00E5
S31508008CE02448008800128DF80D00144800788DF885
S31508008CF00E00114800788DF80F0002AB08220021FB
S31508008D000F480F38FFF706F800BF7FBDBC040020E8
S31508008D106C06002072060020B0C90308C0C9030803
S31508008D2009060020A1060020B0C803087202002028
S31508008D3070020020E001002046070020A40A002057
S31508008D401400DE98CE010020D0010020E4010020A6
S31508008D50E2010020E6010020CC010020E801002005
S31508008D60EA010020DC010020D2010020D301002006
S31508008D70D4010020D6010020BE0A0020B30A002034
S31508008D80B20A0020D8010020DA0100204B490978F0
S31508008D9001F0010100297FD14849097821F0010134
S31508008DA0491C464A117046490978464A117046498F
S31508008DB00978434A1170454991FBF0F1444A1180FC
S31508008DC01188CA1701EB927292103F4B1A801A4605
S31508008DD01188CA1701EB9272C2F387023D4B1A70CB
S31508008DE03649097821F00201344A1170364A118849
S31508008DF0CA1701EB9272C2F387021A7031490978D1
S31508008E002F4A127891420CDB2F4909782C4A12789E
S31508008E10914206DA2949097821F00201891C274A74
S31508008E2011702649097821F04001244A117011462B
S31508008E30097821F08001117023490A8826490978A2
S31508008E400A318A4206DD1D49097821F04001403180
S31508008E501A4A11701C490A881F4909781E318A4224
S31508008E600BDD1649097821F02001144A11701146C4
S31508008E70097821F080018031117013490988174A51
S31508008E801288914208DC0D49097821F02001203129
S31508008E900A4A00E000E011700849097821F0080143
S31508008EA0064A117008490988802905DD114609789E
S31508008EB021F008010831117070470000A80400204D
S31508008EC018060020190600200406002000983A001B
S31508008ED0060600200906002070070020600700200B
S31508008EE012480068C0F3C010F0B11048006800F0DE
S31508008EF00100C8B90D48006820F080000B490860D9
S31508008F000846006840F010010848006861F3070049
S31508008F10064908600846006840F0080103480068EA
S31508008F2061F307000149086070470000A078004017
S31508008F3006484068064A1288801A81B240F2E24022
S31508008F40814201DD012070470020FCE70050014006
S31508008F50A803002070B501460846CE1701EB5676E1
S31508008F60C6F3C70501F007030124002203E06006E3
S31508008F70040E501CC2B29A42F9DB0B4850F8210085
S31508008F800A4EB04202D10A48007840B1064850F865
S31508008F902100064EB04204D00548007808B10020EA
S31508008FA070BD0120FCE70000B87202083DA0FF185A
S31508008FB05A050020F0B502460B460025032B26D19C
S31508008FC0204EB05CC61700EB5676F610082E1DD25A
S31508008FD0DFE806F004070A0D101316191A48017877
S31508008FE014E01A48017811E0194801780EE019488A
S31508008FF001780BE01848017808E01848017805E080
S315080090001748017802E01748017800BF0AE00D4EBC
S31508009010B05CC61700EB5676F61006EB4606124FFE
S315080090203E44F15C002402E04910601CC4B20548C5
S31508009030805C00F00700A042F6DC01F00105284636
S31508009040F0BD000064740208C2040020C3040020B6
S31508009050C4040020C5040020C6040020C70400205C
S31508009060C8040020C9040020E80D002030B50446D5
S315080090700B460C2094FBF0F01E3041B202B91E21BB
S315080090808B4200DD0B460F2A06DD322A04DC084631
S3150800909001EBD0756D1069B202B9282148428342A6
S315080090A000DA4B4258B230BD0A490978C90979B184
S315080090B009494968094A1288891A88B240F2E24180
S315080090C0884205DB0349097821F08001014A1170BD
S315080090D070470000A704002000500140420300200A
S315080090E010B50648007838B100F00CF8044909783C
S315080090F060F300010248017010BD000064040020FE
S31508009100AE04002010B500240FE00A4931F8240007
S31508009110002116F05DFA074901EB84018978884237
S3150800912001D0002010BD601CC4B2032CEDDD012067
S31508009130F8E700001C7B020810B503460020012A48
S3150800914007DB0E2906D800BFB3F5007F02D201203F
S3150800915000E0012010BD000070B53048007810B15D
S315080091602F48007808B106F047FF2E48007880B3EC
S315080091702D48006820B12D4840682D4908804CE0EC
S315080091802A4840682A490988401A84B2294800783A
S3150800919014280FDD40F6C41084423EDD0020214924
S315080091A0087001201D49087023480078401C224990
S315080091B0087032E0B4F57A7F2FDD01201749087070
S315080091C00020184908701C480078401C1A49087085
S315080091D023E0FFE7002514480068B8B100BF12E095
S315080091E01148006860B11148406884B201E01CF07B
S315080091F06DF90E484068001B80B2FA28F7DB00E0DC
S3150800920003E0681CC5B20A2DEADD00BF0A2D04DB9F
S315080092100120044908700249087070BD62040020E4
S315080092205F04002060040020B006002300500140BF
S31508009230CE0A0020A1060020C60A002070B500202C
S3150800924067490870674908709520674908701A20A9
S315080092506649087000254B206549087065480078FE
S3150800926020F080006349087000216248007861F3A5
S3150800927086106049087081095E48007861F38200AB
S315080092805C490870062016F061FB0446AA2C07D133
S315080092905848007820F0400040305649087014E0DD
S315080092A0552C07D15348007820F08000803051496A
S315080092B008700AE0442C07D14E48007820F00400D4
S315080092C0001D4C49087000E00125474890F9000048
S315080092D0782811DC444890F9000010F1780F0BDB70
S315080092E0424890F90000782806DC404890F90000CA
S315080092F010F1780F00DB9DB13E48007820F0100091
S3150800930010303C4908700020374908703749087002
S3150800931034490870324908704B203549087005E011
S315080093203448007820F01000324908703148007837
S3150800933020F020002F4908700021192016F048F95E
S315080093402D49087001212C48007813F0C7FE38B162
S315080093502848007820F0200020302649087003E0CD
S31508009360254800782549087022480078C0F340103F
S3150800937028B1AA20214908701F49087003E01E4831
S3150800938000781E49087017F065FE01211B48007811
S3150800939013F0A4FE17480078C0F3801028B11548CA
S315080093A0007820F020001349087012480078C00998
S315080093B028B11048007820F020000E4908700D48A2
S315080093C00078C00958B10E480078C0F3801030B153
S315080093D00C48007820F0080008300A49087070BD6B
S315080093E0FF050020FD050020F3050020F4050020F8
S315080093F0FE050020E8050020ED050020EB0500200D
S31508009400650500208E04002030B502460B460A2466
S3150800941093FBF4F421B202EB4204E40040F2022585
S3150800942094FBF5F58C1E641B60B2884200DD48B2D9
S31508009430002802DA00F1180460B2172801DC0228B5
S3150800944000DA172030BD00000246054800EB42004E
S31508009450405C322801DD012070470020FCE700004F
S31508009460AC0200202DE9F0410746002431E01CF04B
S315080094702DF8260106F5587086B235462548007837
S31508009480FE20244908701FB9032C07DB092C05DCCC
S315080094902048017828461DF0C8FC18E005F10C00A4
S315080094A085B2002128461DF0C0FC681C85B2002143
S315080094B028461DF0BAFC681C85B2002128461DF016
S315080094C0B4FC681C85B2002128461DF0AEFC601C61
S315080094D0C4B20A2CCBDBFE214FF450701DF0A5FC5C
S315080094E00C48007FFE200B49087700200A490870BF
S315080094F00A4908700A4908700848017840F22E306F
S315080095001DF093FC0648017840F22F301DF08DFCC3
S31508009510BDE8F081340F0020D0030020CE030020E0
S31508009520CF03002010B5014602290BDC002007E016
S31508009530002200EB4003044C23445A54421CD0B288
S315080095400728F5DD10BD0000E80D002010B500BFA6
S31508009550122012F0DDFF00BF0148FEF7F5FC10BD32
S315080095600078004010B52821302018F00FFC10BDF7
S3150800957010B5002407E0054911F81400002118F079
S3150800958071FB601CC4B2282CF5DB10BDFC71020807
S3150800959010B511480078FE200F490870002406E02F
S315080095A001222146002016F0A9F8601CC4B20A2C34
S315080095B0F6DB002009490870094908700748017850
S315080095C040F22E301DF031FC0548017840F22F306C
S315080095D01DF02BFC10BD0000340F0020CE03002028
S315080095E0CF03002000200149088070477A05002033
S315080095F03EB55548007800F0010000B3534800888E
S31508009600E8B15348008851490988884216D051481C
S315080096100078C0F300100028F8D04C4800884C4960
S3150800962008804C48007820F010004A4908704A48DB
S31508009630007820F0400040304749087082E04748EB
S31508009640008847490880474890F90000464908704D
S31508009650464890F9000046490870464890F90000C7
S3150800966045490870454890F900004549B1F9001088
S31508009670444AB2F90020404CCDE9002102902378F3
S315080096803B4C2278364C2178374C20780DF078FA06
S315080096903D480078384900900B7835490A782146C4
S315080096A008782F4909881DF0EBFC38480078C0F384
S315080096B0800038B100202D4908702E490870142002
S315080096C02849087032480078C0F3401048B3234848
S315080096D0008823490988884234D1234890F9000034
S315080096E0204991F9001088422CD1214890F90000B0
S315080096F01E4991F90010884224D11F4890F90000AC
S315080097001C4991F9001088421CD11348007820F0B2
S3150800971040004030104908701E4840681E490880BD
S3150800972010E00B4800880949098888420AD007488A
S315080097300088074908800848007820F04000403033
S31508009740054908703EBD00005F0500200E04002094
S31508009750140400209C0400209E040020C00400205D
S3150800976038040020330400203A0400203204002084
S315080097703B040020310400203C0400206905002039
S315080097808E0A0020C206002030040020A70400200C
S3150800979096040020005001401804002038B50446FD
S315080097A0FE480578FE4890F8EA000020FC4981F852
S315080097B0EA00084690F8EB000021F94880F8EB101B
S315080097C090F8EC00F64880F8EC1090F8ED00F448B4
S315080097D080F8ED1090F8EE00F14880F8EE1090F859
S315080097E0EF00EF4880F8EF1090F8F000EC4880F8AA
S315080097F0F01090F8F100EA4880F8F110E949601A8B
S315080098008C4201F0D98133DCE0B2002842F01E8197
S31508009810E54901EB2420282882F01881DFE810F0BA
S315080098209A00990ECF001F016A01A501990E0C0234
S315080098305B02A702EB022503660396032204730460
S31508009840CD04990E990E990E2D056B05BA05990E3C
S31508009850E705990E59069B06CB060C073907A1079B
S31508009860990EF5073F089D08D30817094709960971
S31508009870B0F5005F01F0C38627DCC1B20029C5D167
S3150800988000122028C8D2DFE810F0640ECC090D0AB1
S315080098907F0ACF0A130B650BA40B640E640EDB0B51
S315080098A0640E640E640E640E640E640E640E640E1A
S315080098B0640E640E640E640E640E640C0B0D6B0D60
S315080098C0BF0D120E650EB80EB90EB0F5205F01F089
S315080098D01D871EDCB0F5105F01F095860CDCB0F52F
S315080098E0045F01F08D86B0F5085F01F08A86B0F551
S315080098F00C5F8BD101F086BEB0F5145F01F084864B
S31508009900B0F5185F01F0AE86B0F51C5FB7D101F06F
S31508009910AABEB0F5305F01F0FD860CDCB0F5245F19
S3150800992001F0F586B0F5285F01F0F286B0F52C5FF8
S31508009930A5D101F0EEBEB0F5345F01F0EC86B0F5C6
S31508009940385F01F0E986A0F560503D38002896D1C9
S3150800995001F0E3BE95480078914991F8EA1060F362
S3150800996007018F4880F8EA10914800788C4991F8E9
S31508009970EB1060F307018A4880F8EB1090F8EC00CA
S315080099800021874880F8EC1090F8ED00844880F8AC
S31508009990ED1090F8EE00824880F8EE1090F8EF008F
S315080099A07F4880F8EF1090F8F0007D4880F8F010B6
S315080099B090F8F1007A4880F8F11002F047B87D482F
S315080099C00078774991F8EA1060F30701744880F83F
S315080099D0EA1078480088010A714890F8EB0061F3AC
S315080099E007006F4981F8EB00734801786C4890F8D6
S315080099F0EC0061F307006A4981F8EC006E480088BC
S31508009A00010A674890F8ED0061F30700644981F898
S31508009A10ED006A48007891F8EE1060F30701604897
S31508009A2080F8EE10664800785D4991F8EF1060F30B
S31508009A3007015B4880F8EF1061480088010A58481A
S31508009A4090F8F00061F30700554981F8F0000846E0
S31508009A5090F8F1000021524880F8F110ADE7594816
S31508009A6000784F4991F8EA1060F307014C4880F8EE
S31508009A70EA10544890F90000010A494890F8EB00AA
S31508009A8061F30700464981F8EB004F4801784448DE
S31508009A9090F8EC0061F30700414981F8EC004B4867
S31508009AA001783F4890F8ED0061F307003C4981F8DA
S31508009AB0ED00474801783A4890F8EE0061F3070050
S31508009AC0374981F8EE0043480178354890F8EF00A9
S31508009AD061F30700324981F8EF00084690F8F00074
S31508009AE000212F4880F8F01090F8F1002C4880F8F3
S31508009AF0F11062E738480078294991F8EA1060F3CE
S31508009B000701274880F8EA1033480088010A2448E4
S31508009B1090F8EB0061F30700214981F8EB002F4824
S31508009B2001781F4890F8EC0061F307001C4981F89A
S31508009B30EC00084690F8ED000021194880F8ED1071
S31508009B4090F8EE00164880F8EE1090F8EF001448EA
S31508009B5080F8EF1090F8F000114880F8F01090F8AF
S31508009B60F1000F4880F8F11027E71D4800780C49E6
S31508009B7091F8EA1060F30701094880F8EA101848D6
S31508009B800088010A064890F8EB0061F307000449CB
S31508009B9081F8EB0013480178014825E035050020D7
S31508009BA0200E00200068FF18C000E7FF38040020D8
S31508009BB03A0400207E08002082080020B007002012
S31508009BC08C080020DD070020040800201808002063
S31508009BD00108002002080020A0070020A207002094
S31508009BE08A0800202B08002090F8EC0061F3070093
S31508009BF0FE4981F8EC00FE480178FC4890F8ED0033
S31508009C0061F30700F94981F8ED00084690F8EE007F
S31508009C100021F64880F8EE1090F8EF00F34880F837
S31508009C20EF1090F8F000F14880F8F01090F8F10085
S31508009C30EE4880F8F110C0E6EE480078EB4991F856
S31508009C40EA1060F30701E94880F8EA10E948008855
S31508009C50010AE64890F8EB0061F30700E34981F84A
S31508009C60EB00E548007891F8EC1060F30701DF484F
S31508009C7080F8EC10E0480088010ADC4890F8ED000E
S31508009C8061F30700D94981F8ED00084690F8EE001F
S31508009C900021D64880F8EE10D8480178D34890F8C5
S31508009CA0EF0061F30700D14981F8EF00D448017845
S31508009CB0CE4890F8F00061F30700CC4981F8F0002F
S31508009CC0D0480178C94890F8F10061F30700C74900
S31508009CD081F8F10071E6C54890F8EA000020C3490A
S31508009CE081F8EA00084690F8EB000021BF4880F8A2
S31508009CF0EB10C5480078BD4991F8EC1060F30701F0
S31508009D00BA4880F8EC10C0480088010AB74890F8AD
S31508009D10ED0061F30700B54981F8ED00BB4801780D
S31508009D20B24890F8EE0061F30700B04981F8EE00FA
S31508009D30B7480178AD4890F8EF0061F30700AB49E2
S31508009D4081F8EF00B3480178A84890F8F00061F36D
S31508009D500700A64981F8F000AF480178A34890F8B3
S31508009D60F10061F30700A14981F8F10025E6AB4847
S31508009D7001789E4890F8EA0061F307009B4981F84C
S31508009D80EA00084690F8EB000021984880F8EB10A6
S31508009D9090F8EC00954880F8EC1090F8ED009348A0
S31508009DA080F8ED109E480178904890F8EE0061F32F
S31508009DB007008E4981F8EE009A4801788B4890F89A
S31508009DC0EF0061F30700894981F8EF0096480178AA
S31508009DD0864890F8F00061F30700844981F8F0009E
S31508009DE092480178814890F8F10061F307007F49AD
S31508009DF081F8F100E1E58E4800787C4991F8EA108F
S31508009E0060F30701794880F8EA108A4801787748AC
S31508009E1090F8EB0061F30700744981F8EB00864877
S31508009E200178724890F8EC0061F307006F4981F8F1
S31508009E30EC00084690F8ED0000216C4880F8ED101B
S31508009E4090F8EE00694880F8EE1090F8EF00674841
S31508009E5080F8EF1090F8F000644880F8F01090F859
S31508009E60F100624880F8F110A7E574480078744953
S31508009E70097808445D4991F8EA1060F307015B48E0
S31508009E8080F8EA106D4800886D4909880844010A77
S31508009E90564890F8EB0061F30700544981F8EB0047
S31508009EA068480178514890F8EC0061F307004F497B
S31508009EB081F8EC00084690F8ED0000214B4880F840
S31508009EC0ED1090F8EE00494880F8EE1090F8EF0093
S31508009ED0464880F8EF1090F8F000444880F8F010F3
S31508009EE090F8F100414880F8F11066E55648017887
S31508009EF03E4890F8EA0061F307003C4981F8EA0019
S31508009F00084690F8EB000021384880F8EB1090F8E6
S31508009F10EC00364880F8EC1090F8ED00334880F8ED
S31508009F20ED1090F8EE00314880F8EE1090F8EF004A
S31508009F302E4880F8EF1090F8F0002C4880F8F010C2
S31508009F4090F8F100294880F8F11036E53F48007886
S31508009F50264991F8EA1060F30701244880F8EA10C8
S31508009F603A480088010A214890F8EB0061F3070097
S31508009F701E4981F8EB003648007891F8EC1060F33A
S31508009F8007011A4880F8EC1031480088010A17487A
S31508009F9090F8ED0061F30700144981F8ED002D48AB
S31508009FA00178124890F8EE0061F307000F4981F82E
S31508009FB0EE0028480088010A0C4890F8EF0061F383
S31508009FC007000A4981F8EF002348007891F8F01055
S31508009FD060F30701054880F8F0101F480088010A59
S31508009FE0024890F8F10061F3070037E0200E0020E0
S31508009FF0180700202A070020260700206A080020E4
S3150800A000330700201B070020200700201607002022
S3150800A01017070020320600201C07002034060020FF
S3150800A020390700201D0700203A07002014070020E2
S3150800A030B6070020140800201E0700205608002036
S3150800A0403C0700201A0700201907002030080020C6
S3150800A050440800204008002048080020FE4981F8EE
S3150800A060F100AAE4FD480178FB4890F8EA0061F39C
S3150800A0700700F94981F8EA00F9480178F64890F8A6
S3150800A080EB0061F30700F44981F8EB00F548017825
S3150800A090F14890F8EC0061F30700EF4981F8EC000D
S3150800A0A0F1480178EC4890F8ED0061F30700EA49B9
S3150800A0B081F8ED00ED480178E74890F8EE0061F385
S3150800A0C00700E54981F8EE00E9480178E24890F88A
S3150800A0D0EF0061F30700E04981F8EF00E5480178F1
S3150800A0E0DD4890F8F00061F30700DB4981F8F000DD
S3150800A0F0E1480178D84890F8F10061F30700D6499D
S3150800A10081F8F10059E4DD480078DD49097808440A
S3150800A110D14991F8EA1060F30701CF4880F8EA10B0
S3150800A120D6480088D64909880844010ACA4890F8DA
S3150800A130EB0061F30700C84981F8EB00D1480178C4
S3150800A140C54890F8EC0061F30700C34981F8EC00B4
S3150800A150CC480088010AC04890F8ED0061F3070072
S3150800A160BD4981F8ED00C8480178BB4890F8EE0073
S3150800A17061F30700B84981F8EE00C3480088010A70
S3150800A180B54890F8EF0061F30700B34981F8EF008E
S3150800A190BB48007891F8F01060F30701AE4880F8E4
S3150800A1A0F010B7480088010AAB4890F8F10061F34F
S3150800A1B00700A94981F8F10050E4B4480078A64997
S3150800A1C091F8EA1060F30701A34880F8EA10AF484F
S3150800A1D00088010AA04890F8EB0061F307009E4941
S3150800A1E081F8EB00AA480078AA49097801449A48F8
S3150800A1F090F8EC0061F30700974981F8EC00A44851
S3150800A2000088A44909880844010A934890F8ED0093
S3150800A21061F30700904981F8ED009B48007891F8B2
S3150800A220EE1060F307018C4880F8EE109648008817
S3150800A230010A894890F8EF0061F30700864981F81A
S3150800A240EF0095480078954909780144824890F8C6
S3150800A250F00061F30700804981F8F0008E48008815
S3150800A2608E4909880844010A7B4890F8F10061F391
S3150800A2700700794981F8F1003BE489480078764976
S3150800A28091F8EA1060F30701734880F8EA108548E8
S3150800A2900178714890F8EB0061F307006E4981F880
S3150800A2A0EB008148807E91F8EC1060F307016A485C
S3150800A2B080F8EC107D480178674890F8ED0061F366
S3150800A2C00700654981F8ED00084690F8EE00002180
S3150800A2D0614880F8EE1090F8EF005F4880F8EF10BC
S3150800A2E090F8F0005C4880F8F01090F8F1005A48B1
S3150800A2F080F8F11038E46E480078574991F8EA106A
S3150800A30060F30701544880F8EA106A480178524811
S3150800A31090F8EB0061F307004F4981F8EB006648B7
S3150800A32001784D4890F8EC0061F307004A4981F836
S3150800A330EC0062480178484890F8ED0061F30700A0
S3150800A340454981F8ED005E480178434890F8EE00EB
S3150800A35061F30700404981F8EE0059480088010A70
S3150800A3603D4890F8EF0061F307003B4981F8EF009C
S3150800A37054480178384890F8F00061F307003649E8
S3150800A38081F8F000084690F8F1000021324880F87C
S3150800A390F11050E4304890F8EA0000202E4981F880
S3150800A3A0EA00084690F8EB0000212B4880F8EB10ED
S3150800A3B090F8EC00284880F8EC1090F8ED00264854
S3150800A3C080F8ED1090F8EE00234880F8EE1090F82B
S3150800A3D0EF00214880F8EF1090F8F0001E4880F84A
S3150800A3E0F01090F8F1001C4880F8F11023E4364884
S3150800A3F00078194991F8EA1060F30701164880F8C1
S3150800A400EA1031480088010A134890F8EB0061F316
S3150800A4100700114981F8EB00084690F8EC00002186
S3150800A4200D4880F8EC1090F8ED000B4880F8ED1018
S3150800A43090F8EE00084880F8EE1090F8EF0006480D
S3150800A44080F8EF1090F8F000034880F8F01090F8C4
S3150800A450F10001483AE00000200E00205F080020C5
S3150800A46060080020610800205B0800205A080020C8
S3150800A4705D0800205C0800205E08002036080020E1
S3150800A480340800203A0800203C08002084080020F0
S3150800A490820800202A07002088080020800800205B
S3150800A4A0460700204D070020F61000206C07002004
S3150800A4B0490700206D0700206E0700207707002057
S3150800A4C044070020BA0800206402002080F8F11032
S3150800A4D04CE4FE480078FE4909780844FD4991F89D
S3150800A4E0EA1060F30701FB4880F8EA10F74801789C
S3150800A4F0F84890F8EB0061F30700F64981F8EB009D
S3150800A500F5480178F34890F8EC0061F30700F14943
S3150800A51081F8EC00F1480178EE4890F8ED0061F317
S3150800A5200700EC4981F8ED00084690F8EE00002196
S3150800A530E84880F8EE1090F8EF00E64880F8EF104B
S3150800A54090F8F000E34880F8F01090F8F100E14840
S3150800A55080F8F1100AE4E2480178DE4890F8EA004B
S3150800A56061F30700DB4981F8EA00084690F8EB003A
S3150800A5700021D84880F8EB1090F8EC00D54880F810
S3150800A580EC1090F8ED00D34880F8ED1090F8EE0046
S3150800A590D04880F8EE1090F8EF00CE4880F8EF101B
S3150800A5A090F8F000CB4880F8F01090F8F100C94810
S3150800A5B080F8F1101EE4CB480078C64991F8EA10F5
S3150800A5C060F30701C34880F8EA10C6480088010A04
S3150800A5D0C04890F8EB0061F30700BE4981F8EB002C
S3150800A5E0C1480178BB4890F8EC0061F30700B94907
S3150800A5F081F8EC00BC480088010AB64890F8ED00DE
S3150800A60061F30700B34981F8ED00084690F8EE00BB
S3150800A6100021B04880F8EE1090F8EF00AD4880F8B9
S3150800A620EF1090F8F000AB4880F8F01090F8F100C1
S3150800A630A84880F8F11017E4A64890F8EA00002028
S3150800A640A44981F8EA00084690F8EB000021A148E1
S3150800A65080F8EB1090F8EC009E4880F8EC1090F823
S3150800A660ED009C4880F8ED1090F8EE00994880F8C7
S3150800A670EE1090F8EF00974880F8EF1090F8F00089
S3150800A680944880F8F01090F8F100924880F8F1109C
S3150800A6902BE4964800788F4991F8EA1060F3070191
S3150800A6A08C4880F8EA1091480088010A894890F891
S3150800A6B0EB0061F30700874981F8EB008C480078C6
S3150800A6C091F8EC1060F30701824880F8EC1088488E
S3150800A6D00088010A7F4890F8ED0061F307007D497C
S3150800A6E081F8ED00834801787A4890F8EE0061F326
S3150800A6F00700784981F8EE007E480088010A754807
S3150800A70090F8EF0061F30700724981F8EF007A4884
S3150800A71000787A49097808447949097808447949D2
S3150800A720097801446B4890F8F00061F3070069491D
S3150800A73081F8F00070480088704909880844704913
S3150800A74091F9001008446F4991F900100844010A6C
S3150800A750604890F8F10061F307005E4981F8F1005E
S3150800A7607FE4694800785B4991F8EA1060F30701CD
S3150800A770584880F8EA1064480088010A554890F855
S3150800A780EB0061F30700534981F8EB005F48017855
S3150800A790504890F8EC0061F307004E4981F8EC0048
S3150800A7A05A480088010A4B4890F8ED0061F3070003
S3150800A7B0484981F8ED0056480178464890F8EE0079
S3150800A7C061F30700434981F8EE0051480078010A11
S3150800A7D0404890F8EF0061F307003E4981F8EF0022
S3150800A7E04C48007891F8F01060F30701394880F872
S3150800A7F0F01048480088010A364890F8F10061F3DD
S3150800A8000700344981F8F1002BE4434800783149C0
S3150800A81091F8EA1060F307012E4880F8EA103E48DE
S3150800A8200088010A2B4890F8EB0061F307002949D4
S3150800A83081F8EB0039480178264890F8EC0061F376
S3150800A8400700244981F8EC0035480178214890F83A
S3150800A850ED0061F307001F4981F8ED0031480178E2
S3150800A8601C4890F8EE0061F307001A4981F8EE00DB
S3150800A8702D480178174890F8EF0061F3070015494D
S3150800A88081F8EF00084690F8F0000021114880F89A
S3150800A890F01090F8F1000F4880F8F11032E40D48F6
S3150800A8A090F8EA0000200B4981F8EA00084690F87B
S3150800A8B0EB000021074880F8EB1090F8EC000548FB
S3150800A8C080F8EC1090F8ED0002482FE070070020A1
S3150800A8D06F070020200E0020720700207107002055
S3150800A8E0980800203209002034090020D6090020E3
S3150800A8F0D80900203A0A0020CE090020D0090020F5
S3150800A900DA09002068050020840A0020860A00204B
S3150800A910CD090020C20A00208806002087060020EC
S3150800A92074060020720600207106002080F8ED10DB
S3150800A93090F8EE00FD4880F8EE1090F8EF00FB481E
S3150800A94080F8EF1090F8F000F84880F8F01090F8CA
S3150800A950F100F64880F8F1102EE4F5480078F3493E
S3150800A96091F8EA1060F30701F04880F8EA10F04819
S3150800A9700088010AED4890F8EB0061F30700EB49FF
S3150800A98081F8EB00084690F8EC000021E74880F8CB
S3150800A990EC1090F8ED00E54880F8ED1090F8EE0020
S3150800A9A0E24880F8EE1090F8EF00E04880F8EF10E3
S3150800A9B090F8F000DD4880F8F01090F8F100DB48D8
S3150800A9C080F8F11058E4DB480178D84890F8EA0096
S3150800A9D061F30700D54981F8EA00D7480178D348DA
S3150800A9E090F8EB0061F30700D04981F8EB00D348F3
S3150800A9F00178CE4890F8EC0061F30700CB4981F85E
S3150800AA00EC00CF480178C94890F8ED0061F30700DB
S3150800AA10C64981F8ED00CB480178C44890F8EE00A5
S3150800AA2061F30700C14981F8EE00084690F8EF0087
S3150800AA300021BE4880F8EF1090F8F000BB4880F877
S3150800AA40F01090F8F100B94880F8F11014E4BE4807
S3150800AA500178B64890F8EA0061F30700B34981F82F
S3150800AA60EA00084690F8EB000021B04880F8EB10A1
S3150800AA7090F8EC00AD4880F8EC1090F8ED00AB4883
S3150800AA8080F8ED1090F8EE00A84880F8EE1090F8DF
S3150800AA90EF00A64880F8EF1090F8F000A34880F879
S3150800AAA0F01090F8F100A14880F8F11022E4A748C8
S3150800AAB000789E4991F8EA1060F307019B4880F8F0
S3150800AAC0EA10A2480088010A984890F8EB0061F35A
S3150800AAD00700964981F8EB009D480178934890F85D
S3150800AAE0EC0061F30700914981F8EC009948017878
S3150800AAF08E4890F8ED0061F307008C4981F8ED0067
S3150800AB0095480178894890F8EE0061F3070087496F
S3150800AB1081F8EE0091480178844890F8EF0061F3D7
S3150800AB200700824981F8EF008D4801787F4890F840
S3150800AB30F00061F307007D4981F8F000084690F8B7
S3150800AB40F1000021794880F8F11022E48548007860
S3150800AB50764991F8EA1060F30701744880F8EA101C
S3150800AB6080480088010A714890F8EB0061F30700F5
S3150800AB706E4981F8EB00084690F8EC0000216B4816
S3150800AB8080F8EC1090F8ED00684880F8ED1090F821
S3150800AB90EE00664880F8EE1090F8EF00634880F8FB
S3150800ABA0EF1090F8F000614880F8F01090F8F10086
S3150800ABB05E4880F8F11019E46B4801785B4890F814
S3150800ABC0EA0061F30700594981F8EA006648017806
S3150800ABD0564890F8EB0061F30700544981F8EB00FA
S3150800ABE0084690F8EC000021504880F8EC1090F8E0
S3150800ABF0ED004E4880F8ED1090F8EE004B4880F8CE
S3150800AC00EE1090F8EF00494880F8EF1090F8F00041
S3150800AC10464880F8F01090F8F100444880F8F110A2
S3150800AC2056E4424890F8EA000020404981F8EA00D4
S3150800AC30084690F8EB0000213C4880F8EB1090F8A5
S3150800AC40EC003A4880F8EC1090F8ED00374880F8A8
S3150800AC50ED1046480178354890F8EE0061F3070094
S3150800AC60324981F8EE0042480178304890F8EF0002
S3150800AC7061F307002D4981F8EF003E4801782B481B
S3150800AC8090F8F00061F30700284981F8F0003A4887
S3150800AC900178264890F8F10061F30700234981F806
S3150800ACA0F10015E435480178204890F8EA0061F388
S3150800ACB007001E4981F8EA00314801781B4890F8D8
S3150800ACC0EB0061F30700194981F8EB002748017882
S3150800ACD0164890F8EC0061F30700144981F8EC0077
S3150800ACE023480178114890F8ED0061F307000F49F1
S3150800ACF081F8ED00234801780C4890F8EE0061F3DE
S3150800AD0007000A4981F8EE00084690F8EF0000218E
S3150800AD10064880F8EF1090F8F000044880F8F01024
S3150800AD2090F8F100014880F8F11013E4200E002095
S3150800AD3006060020B4050020C0050020C105002035
S3150800AD40C2050020E5050020B205002026060020E1
S3150800AD50240600202E0600202206002023060020B6
S3150800AD602106002030060020A1060020930A0020B4
S3150800AD70920A002038020020FE0100205607002013
S3150800AD803302002031020020FE480178FE4890F880
S3150800AD90EA0061F30700FC4981F8EA00FB480178FC
S3150800ADA0F94890F8EB0061F30700F74981F8EB00E2
S3150800ADB0F7480178F44890F8EC0061F30700F24987
S3150800ADC081F8EC00F3480178EF4890F8ED0061F35C
S3150800ADD00700ED4981F8ED00EF48007891F8EE108C
S3150800ADE060F30701E84880F8EE10EC480178E64879
S3150800ADF090F8EF0061F30700E34981F8EF00E848AF
S3150800AE000178E14890F8F00061F30700DE4981F81F
S3150800AE10F000E4480178DC4890F8F10061F3070097
S3150800AE20D94981F8F10006E4DF480178D64890F858
S3150800AE30EA0061F30700D44981F8EA00DB480178A3
S3150800AE40D14890F8EB0061F30700CF4981F8EB0091
S3150800AE50D7480178CC4890F8EC0061F30700CA4956
S3150800AE6081F8EC00D3480178C74890F8ED0061F303
S3150800AE700700C54981F8ED00CF480178C24890F827
S3150800AE80EE0061F30700C04981F8EE00084690F825
S3150800AE90EF000021BC4880F8EF1090F8F000BA489F
S3150800AEA080F8F01090F8F100B74880F8F11057E4F0
S3150800AEB0C2480178B44890F8EA0061F30700B2493D
S3150800AEC081F8EA00BE480178AF4890F8EB0061F3D4
S3150800AED00700AD4981F8EB00BA480178AA4890F80E
S3150800AEE0EC0061F30700A84981F8EC00B648017840
S3150800AEF0A54890F8ED0061F30700A34981F8ED0035
S3150800AF00B2480178A04890F8EE0061F307009E4920
S3150800AF1081F8EE00AE4801789B4890F8EF0061F39F
S3150800AF200700994981F8EF00AA480178964890F8F1
S3150800AF30F00061F30700944981F8F000A5480088FD
S3150800AF40010A914890F8F10061F307008E4981F8EB
S3150800AF50F10005E4A04801788B4890F8EA0061F30F
S3150800AF600700894981F8EA009C480178864890F8E4
S3150800AF70EB0061F30700844981F8EB0098480178F3
S3150800AF80814890F8EC0061F307007F4981F8EC00EE
S3150800AF90934841787C4890F8ED0061F307007A49B8
S3150800AFA081F8ED00084690F8EE000021764880F812
S3150800AFB0EE1090F8EF00744880F8EF1090F8F00063
S3150800AFC0714880F8F01090F8F1006F4880F8F11099
S3150800AFD01AE46D4890F8EA0000206B4981F8EA0007
S3150800AFE0084690F8EB000021674880F8EB1090F8C7
S3150800AFF0EC00654880F8EC1090F8ED00624880F89F
S3150800B000ED1090F8EE00604880F8EE1090F8EF002A
S3150800B0105D4880F8EF10734801785B4890F8F000B7
S3150800B02061F30700584981F8F0006F4801785648DF
S3150800B03090F8F10061F30700534981F8F1002DE417
S3150800B0406A480178504890F8EA0061F307004E49CB
S3150800B05081F8EA00664801784B4890F8EB0061F3FE
S3150800B0600700494981F8EB0062480178464890F89C
S3150800B070EC0061F30700444981F8EC005E4801786A
S3150800B080414890F8ED0061F307003F4981F8ED006B
S3150800B0905A4801783C4890F8EE0061F307003A49AF
S3150800B0A081F8EE0056480178374890F8EF0061F3CA
S3150800B0B00700354981F8EF0052480178324890F880
S3150800B0C0F00061F30700304981F8F0004E48017836
S3150800B0D02D4890F8F10061F307002B4981F8F1003B
S3150800B0E04A48007828B1084690F8F100802081F88F
S3150800B0F0F1004748007860B1234890F8F10000F164
S3150800B1004001214890F8F10061F307001E4981F8D3
S3150800B110F1004048007860B91B4890F8F10000F14A
S3150800B1202001194890F8F10061F30700164981F8E3
S3150800B130F1003948007858B9134890F8F1001030F2
S3150800B140114991F8F11060F307010F4880F8F110E2
S3150800B150FFE1324801780C4890F8EA0061F30700ED
S3150800B160094981F8EA002E48007891F8EB1060F357
S3150800B1700701054880F8EB1029480088010A0248AB
S3150800B18050E00000F6050020200E0020E90500200A
S3150800B190EB050020F105002084050020EA050020C3
S3150800B1A0EC050020F8050020F7050020EE05002034
S3150800B1B0EF05002000060020ED0500207E0900208E
S3150800B1C06E0900206F09002070090020A7090020D9
S3150800B1D0A60900209E090020D5080020DA080020CC
S3150800B1E0DF080020B7070020B8070020C2040020A7
S3150800B1F0C3040020C4040020C5040020C60400209F
S3150800B200C7040020C8040020C90400202605002021
S3150800B2104605002047050020480500204207002073
S3150800B220A405002090F8EC0061F30700F74981F8BF
S3150800B230EC00F7480178F54890F8ED0061F307004F
S3150800B240F24981F8ED00F3480078C0F34001EF4871
S3150800B25090F8EE0061F30700EC4981F8EE00ED483E
S3150800B260007800F00101E94890F8EF0061F3070063
S3150800B270E64981F8EF00E848007891F8F01060F3A5
S3150800B2800701E24880F8F010E3480088010ADF4821
S3150800B29090F8F10061F30700DC4981F8F100D5E385
S3150800B2A0DE480078D94991F8EA1060F30701D748D3
S3150800B2B080F8EA10D9480078010AD44890F8EB00DB
S3150800B2C061F30700D14981F8EB0000220321012030
S3150800B2D011F0F8F9CD4991F8EC1060F30701CB4865
S3150800B2E080F8EC1000220321104611F0EBF9C7494B
S3150800B2F091F8ED1060F30701C44880F8ED100022BC
S3150800B3000321104611F0DEF90146C04890F8EE0018
S3150800B31061F30700BD4981F8EE00002203211046BB
S3150800B32011F0D0F9B94991F8EF1060F30701B74861
S3150800B33080F8EF10BA480178B44890F8F00061F345
S3150800B3400700B24981F8F000B5480088010AAF48FD
S3150800B35090F8F10061F30700AC4981F8F10075E354
S3150800B360B0480078A94991F8EA1060F30701A748A0
S3150800B37080F8EA10AB480088010AA44890F8EB0068
S3150800B38061F30700A14981F8EB00A748007891F816
S3150800B390EC1060F307019D4880F8EC10A24800887D
S3150800B3A0010A9A4890F8ED0061F30700974981F879
S3150800B3B0ED009E480178954890F8EE0061F3070085
S3150800B3C0924981F8EE0099480088010A8F4890F85A
S3150800B3D0EF0061F307008D4981F8EF009448017882
S3150800B3E08A4890F8F00061F30700884981F8F00070
S3150800B3F08F480088010A854890F8F10061F3070034
S3150800B400824981F8F10021E38A4800787F4991F85A
S3150800B410EA1060F307017D4880F8EA10854800883D
S3150800B420010A7A4890F8EB0061F30700774981F83A
S3150800B430EB008148007891F8EC1060F30701734837
S3150800B44080F8EC107C480088010A704890F8ED00F6
S3150800B45061F307006D4981F8ED00784801786B487B
S3150800B46090F8EE0061F30700684981F8EE0073482A
S3150800B4700088010A654890F8EF0061F30700634900
S3150800B48081F8EF006E48007891F8F01060F3070134
S3150800B4905E4880F8F0106A480088010A5B4890F810
S3150800B4A0F10061F30700594981F8F100CEE26548D9
S3150800B4B00078564991F8EA1060F30701534880F876
S3150800B4C0EA1060480088010A504890F8EB0061F3DA
S3150800B4D007004E4981F8EB005B48007891F8EC10BC
S3150800B4E060F30701494880F8EC1057480088010ABC
S3150800B4F0464890F8ED0061F30700444981F8ED00ED
S3150800B50052480178414890F8EE0061F307003F4938
